{
  "_format": "hh-sol-artifact-1",
  "contractName": "NFT",
  "sourceName": "contracts/NFT.sol",
  "abi": [
    {
      "inputs": [],
      "stateMutability": "nonpayable",
      "type": "constructor"
    },
    {
      "inputs": [
        {
          "internalType": "address",
          "name": "operator",
          "type": "address"
        }
      ],
      "name": "OperatorNotAllowed",
      "type": "error"
    },
    {
      "anonymous": false,
      "inputs": [
        {
          "indexed": true,
          "internalType": "address",
          "name": "owner",
          "type": "address"
        },
        {
          "indexed": true,
          "internalType": "address",
          "name": "approved",
          "type": "address"
        },
        {
          "indexed": true,
          "internalType": "uint256",
          "name": "tokenId",
          "type": "uint256"
        }
      ],
      "name": "Approval",
      "type": "event"
    },
    {
      "anonymous": false,
      "inputs": [
        {
          "indexed": true,
          "internalType": "address",
          "name": "owner",
          "type": "address"
        },
        {
          "indexed": true,
          "internalType": "address",
          "name": "operator",
          "type": "address"
        },
        {
          "indexed": false,
          "internalType": "bool",
          "name": "approved",
          "type": "bool"
        }
      ],
      "name": "ApprovalForAll",
      "type": "event"
    },
    {
      "anonymous": false,
      "inputs": [
        {
          "indexed": true,
          "internalType": "address",
          "name": "from",
          "type": "address"
        },
        {
          "indexed": true,
          "internalType": "address",
          "name": "to",
          "type": "address"
        },
        {
          "indexed": true,
          "internalType": "uint256",
          "name": "tokenId",
          "type": "uint256"
        }
      ],
      "name": "Transfer",
      "type": "event"
    },
    {
      "inputs": [],
      "name": "OPERATOR_FILTER_REGISTRY",
      "outputs": [
        {
          "internalType": "contract IOperatorFilterRegistry",
          "name": "",
          "type": "address"
        }
      ],
      "stateMutability": "view",
      "type": "function"
    },
    {
      "inputs": [],
      "name": "TOTAL_SUPPLY",
      "outputs": [
        {
          "internalType": "uint256",
          "name": "",
          "type": "uint256"
        }
      ],
      "stateMutability": "view",
      "type": "function"
    },
    {
      "inputs": [
        {
          "internalType": "address",
          "name": "operator",
          "type": "address"
        },
        {
          "internalType": "uint256",
          "name": "tokenId",
          "type": "uint256"
        }
      ],
      "name": "approve",
      "outputs": [],
      "stateMutability": "nonpayable",
      "type": "function"
    },
    {
      "inputs": [
        {
          "internalType": "address",
          "name": "owner",
          "type": "address"
        }
      ],
      "name": "balanceOf",
      "outputs": [
        {
          "internalType": "uint256",
          "name": "",
          "type": "uint256"
        }
      ],
      "stateMutability": "view",
      "type": "function"
    },
    {
      "inputs": [],
      "name": "baseTokenURI",
      "outputs": [
        {
          "internalType": "string",
          "name": "",
          "type": "string"
        }
      ],
      "stateMutability": "view",
      "type": "function"
    },
    {
      "inputs": [
        {
          "internalType": "uint256",
          "name": "tokenId",
          "type": "uint256"
        }
      ],
      "name": "getApproved",
      "outputs": [
        {
          "internalType": "address",
          "name": "",
          "type": "address"
        }
      ],
      "stateMutability": "view",
      "type": "function"
    },
    {
      "inputs": [
        {
          "internalType": "address",
          "name": "owner",
          "type": "address"
        },
        {
          "internalType": "address",
          "name": "operator",
          "type": "address"
        }
      ],
      "name": "isApprovedForAll",
      "outputs": [
        {
          "internalType": "bool",
          "name": "",
          "type": "bool"
        }
      ],
      "stateMutability": "view",
      "type": "function"
    },
    {
      "inputs": [
        {
          "internalType": "address",
          "name": "recipient",
          "type": "address"
        }
      ],
      "name": "mintTo",
      "outputs": [
        {
          "internalType": "uint256",
          "name": "",
          "type": "uint256"
        }
      ],
      "stateMutability": "nonpayable",
      "type": "function"
    },
    {
      "inputs": [],
      "name": "name",
      "outputs": [
        {
          "internalType": "string",
          "name": "",
          "type": "string"
        }
      ],
      "stateMutability": "view",
      "type": "function"
    },
    {
      "inputs": [
        {
          "internalType": "uint256",
          "name": "tokenId",
          "type": "uint256"
        }
      ],
      "name": "ownerOf",
      "outputs": [
        {
          "internalType": "address",
          "name": "",
          "type": "address"
        }
      ],
      "stateMutability": "view",
      "type": "function"
    },
    {
      "inputs": [
        {
          "internalType": "address",
          "name": "from",
          "type": "address"
        },
        {
          "internalType": "address",
          "name": "to",
          "type": "address"
        },
        {
          "internalType": "uint256",
          "name": "tokenId",
          "type": "uint256"
        }
      ],
      "name": "safeTransferFrom",
      "outputs": [],
      "stateMutability": "nonpayable",
      "type": "function"
    },
    {
      "inputs": [
        {
          "internalType": "address",
          "name": "from",
          "type": "address"
        },
        {
          "internalType": "address",
          "name": "to",
          "type": "address"
        },
        {
          "internalType": "uint256",
          "name": "tokenId",
          "type": "uint256"
        },
        {
          "internalType": "bytes",
          "name": "data",
          "type": "bytes"
        }
      ],
      "name": "safeTransferFrom",
      "outputs": [],
      "stateMutability": "nonpayable",
      "type": "function"
    },
    {
      "inputs": [
        {
          "internalType": "address",
          "name": "operator",
          "type": "address"
        },
        {
          "internalType": "bool",
          "name": "approved",
          "type": "bool"
        }
      ],
      "name": "setApprovalForAll",
      "outputs": [],
      "stateMutability": "nonpayable",
      "type": "function"
    },
    {
      "inputs": [
        {
          "internalType": "string",
          "name": "_baseTokenURI",
          "type": "string"
        }
      ],
      "name": "setBaseTokenURI",
      "outputs": [],
      "stateMutability": "nonpayable",
      "type": "function"
    },
    {
      "inputs": [
        {
          "internalType": "bytes4",
          "name": "interfaceId",
          "type": "bytes4"
        }
      ],
      "name": "supportsInterface",
      "outputs": [
        {
          "internalType": "bool",
          "name": "",
          "type": "bool"
        }
      ],
      "stateMutability": "view",
      "type": "function"
    },
    {
      "inputs": [],
      "name": "symbol",
      "outputs": [
        {
          "internalType": "string",
          "name": "",
          "type": "string"
        }
      ],
      "stateMutability": "view",
      "type": "function"
    },
    {
      "inputs": [
        {
          "internalType": "uint256",
          "name": "tokenId",
          "type": "uint256"
        }
      ],
      "name": "tokenURI",
      "outputs": [
        {
          "internalType": "string",
          "name": "",
          "type": "string"
        }
      ],
      "stateMutability": "view",
      "type": "function"
    },
    {
      "inputs": [
        {
          "internalType": "address",
          "name": "from",
          "type": "address"
        },
        {
          "internalType": "address",
          "name": "to",
          "type": "address"
        },
        {
          "internalType": "uint256",
          "name": "tokenId",
          "type": "uint256"
        }
      ],
      "name": "transferFrom",
      "outputs": [],
      "stateMutability": "nonpayable",
      "type": "function"
    }
  ],
  "bytecode": "0x60806040523480156200001157600080fd5b50733cc6cdda760b79bafa08df41ecfa224f810dceb660016040518060400160405280600581526020017f596f5248610000000000000000000000000000000000000000000000000000008152506040518060400160405280600581526020017f594f5248410000000000000000000000000000000000000000000000000000008152508160009081620000a6919062000553565b508060019081620000b8919062000553565b50505060006daaeb6d7670e522a718067333cd4e73ffffffffffffffffffffffffffffffffffffffff163b1115620002b057801562000176576daaeb6d7670e522a718067333cd4e73ffffffffffffffffffffffffffffffffffffffff16637d3e3dbe30846040518363ffffffff1660e01b81526004016200013c9291906200067f565b600060405180830381600087803b1580156200015757600080fd5b505af11580156200016c573d6000803e3d6000fd5b50505050620002af565b600073ffffffffffffffffffffffffffffffffffffffff168273ffffffffffffffffffffffffffffffffffffffff161462000230576daaeb6d7670e522a718067333cd4e73ffffffffffffffffffffffffffffffffffffffff1663a0af290330846040518363ffffffff1660e01b8152600401620001f69291906200067f565b600060405180830381600087803b1580156200021157600080fd5b505af115801562000226573d6000803e3d6000fd5b50505050620002ae565b6daaeb6d7670e522a718067333cd4e73ffffffffffffffffffffffffffffffffffffffff16634420e486306040518263ffffffff1660e01b8152600401620002799190620006ac565b600060405180830381600087803b1580156200029457600080fd5b505af1158015620002a9573d6000803e3d6000fd5b505050505b5b5b50506040518060200160405280600081525060079081620002d2919062000553565b50620006c9565b600081519050919050565b7f4e487b7100000000000000000000000000000000000000000000000000000000600052604160045260246000fd5b7f4e487b7100000000000000000000000000000000000000000000000000000000600052602260045260246000fd5b600060028204905060018216806200035b57607f821691505b60208210810362000371576200037062000313565b5b50919050565b60008190508160005260206000209050919050565b60006020601f8301049050919050565b600082821b905092915050565b600060088302620003db7fffffffffffffffffffffffffffffffffffffffffffffffffffffffffffffffff826200039c565b620003e786836200039c565b95508019841693508086168417925050509392505050565b6000819050919050565b6000819050919050565b6000620004346200042e6200042884620003ff565b62000409565b620003ff565b9050919050565b6000819050919050565b620004508362000413565b620004686200045f826200043b565b848454620003a9565b825550505050565b600090565b6200047f62000470565b6200048c81848462000445565b505050565b5b81811015620004b457620004a860008262000475565b60018101905062000492565b5050565b601f8211156200050357620004cd8162000377565b620004d8846200038c565b81016020851015620004e8578190505b62000500620004f7856200038c565b83018262000491565b50505b505050565b600082821c905092915050565b6000620005286000198460080262000508565b1980831691505092915050565b600062000543838362000515565b9150826002028217905092915050565b6200055e82620002d9565b67ffffffffffffffff8111156200057a5762000579620002e4565b5b62000586825462000342565b62000593828285620004b8565b600060209050601f831160018114620005cb5760008415620005b6578287015190505b620005c2858262000535565b86555062000632565b601f198416620005db8662000377565b60005b828110156200060557848901518255600182019150602085019450602081019050620005de565b8683101562000625578489015162000621601f89168262000515565b8355505b6001600288020188555050505b505050505050565b600073ffffffffffffffffffffffffffffffffffffffff82169050919050565b600062000667826200063a565b9050919050565b62000679816200065a565b82525050565b60006040820190506200069660008301856200066e565b620006a560208301846200066e565b9392505050565b6000602082019050620006c360008301846200066e565b92915050565b612fd680620006d96000396000f3fe608060405234801561001057600080fd5b50600436106101165760003560e01c806370a08231116100a2578063a22cb46511610071578063a22cb465146102f3578063b88d4fde1461030f578063c87b56dd1461032b578063d547cfb71461035b578063e985e9c51461037957610116565b806370a0823114610257578063755edd1714610287578063902d55a5146102b757806395d89b41146102d557610116565b806323b872dd116100e957806323b872dd146101b557806330176e13146101d157806341f43434146101ed57806342842e0e1461020b5780636352211e1461022757610116565b806301ffc9a71461011b57806306fdde031461014b578063081812fc14610169578063095ea7b314610199575b600080fd5b61013560048036038101906101309190611d8c565b6103a9565b6040516101429190611dd4565b60405180910390f35b61015361048b565b6040516101609190611e7f565b60405180910390f35b610183600480360381019061017e9190611ed7565b61051d565b6040516101909190611f45565b60405180910390f35b6101b360048036038101906101ae9190611f8c565b610563565b005b6101cf60048036038101906101ca9190611fcc565b61057c565b005b6101eb60048036038101906101e69190612154565b6105cb565b005b6101f56105de565b60405161020291906121fc565b60405180910390f35b61022560048036038101906102209190611fcc565b6105f0565b005b610241600480360381019061023c9190611ed7565b61063f565b60405161024e9190611f45565b60405180910390f35b610271600480360381019061026c9190612217565b6106c5565b60405161027e9190612253565b60405180910390f35b6102a1600480360381019061029c9190612217565b61077c565b6040516102ae9190612253565b60405180910390f35b6102bf6107fb565b6040516102cc9190612253565b60405180910390f35b6102dd610801565b6040516102ea9190611e7f565b60405180910390f35b61030d6004803603810190610308919061229a565b610893565b005b6103296004803603810190610324919061237b565b6108ac565b005b61034560048036038101906103409190611ed7565b6108fd565b6040516103529190611e7f565b60405180910390f35b610363610965565b6040516103709190611e7f565b60405180910390f35b610393600480360381019061038e91906123fe565b6109f3565b6040516103a09190611dd4565b60405180910390f35b60007f80ac58cd000000000000000000000000000000000000000000000000000000007bffffffffffffffffffffffffffffffffffffffffffffffffffffffff1916827bffffffffffffffffffffffffffffffffffffffffffffffffffffffff1916148061047457507f5b5e139f000000000000000000000000000000000000000000000000000000007bffffffffffffffffffffffffffffffffffffffffffffffffffffffff1916827bffffffffffffffffffffffffffffffffffffffffffffffffffffffff1916145b80610484575061048382610a87565b5b9050919050565b60606000805461049a9061246d565b80601f01602080910402602001604051908101604052809291908181526020018280546104c69061246d565b80156105135780601f106104e857610100808354040283529160200191610513565b820191906000526020600020905b8154815290600101906020018083116104f657829003601f168201915b5050505050905090565b600061052882610af1565b6004600083815260200190815260200160002060009054906101000a900473ffffffffffffffffffffffffffffffffffffffff169050919050565b8161056d81610b3c565b6105778383610c39565b505050565b823373ffffffffffffffffffffffffffffffffffffffff168173ffffffffffffffffffffffffffffffffffffffff16146105ba576105b933610b3c565b5b6105c5848484610d50565b50505050565b80600790816105da9190612640565b5050565b6daaeb6d7670e522a718067333cd4e81565b823373ffffffffffffffffffffffffffffffffffffffff168173ffffffffffffffffffffffffffffffffffffffff161461062e5761062d33610b3c565b5b610639848484610db0565b50505050565b60008061064b83610dd0565b9050600073ffffffffffffffffffffffffffffffffffffffff168173ffffffffffffffffffffffffffffffffffffffff16036106bc576040517f08c379a00000000000000000000000000000000000000000000000000000000081526004016106b39061275e565b60405180910390fd5b80915050919050565b60008073ffffffffffffffffffffffffffffffffffffffff168273ffffffffffffffffffffffffffffffffffffffff1603610735576040517f08c379a000000000000000000000000000000000000000000000000000000000815260040161072c906127f0565b60405180910390fd5b600360008373ffffffffffffffffffffffffffffffffffffffff1673ffffffffffffffffffffffffffffffffffffffff168152602001908152602001600020549050919050565b6000806107896006610e0d565b905061271081106107cf576040517f08c379a00000000000000000000000000000000000000000000000000000000081526004016107c69061285c565b60405180910390fd5b6107d96006610e1b565b60006107e56006610e0d565b90506107f18482610e31565b8092505050919050565b61271081565b6060600180546108109061246d565b80601f016020809104026020016040519081016040528092919081815260200182805461083c9061246d565b80156108895780601f1061085e57610100808354040283529160200191610889565b820191906000526020600020905b81548152906001019060200180831161086c57829003601f168201915b5050505050905090565b8161089d81610b3c565b6108a78383610e4f565b505050565b833373ffffffffffffffffffffffffffffffffffffffff168173ffffffffffffffffffffffffffffffffffffffff16146108ea576108e933610b3c565b5b6108f685858585610e65565b5050505050565b606061090882610af1565b6000610912610ec7565b90506000815111610932576040518060200160405280600081525061095d565b8061093c84610f59565b60405160200161094d9291906128b8565b6040516020818303038152906040525b915050919050565b600780546109729061246d565b80601f016020809104026020016040519081016040528092919081815260200182805461099e9061246d565b80156109eb5780601f106109c0576101008083540402835291602001916109eb565b820191906000526020600020905b8154815290600101906020018083116109ce57829003601f168201915b505050505081565b6000600560008473ffffffffffffffffffffffffffffffffffffffff1673ffffffffffffffffffffffffffffffffffffffff16815260200190815260200160002060008373ffffffffffffffffffffffffffffffffffffffff1673ffffffffffffffffffffffffffffffffffffffff16815260200190815260200160002060009054906101000a900460ff16905092915050565b60007f01ffc9a7000000000000000000000000000000000000000000000000000000007bffffffffffffffffffffffffffffffffffffffffffffffffffffffff1916827bffffffffffffffffffffffffffffffffffffffffffffffffffffffff1916149050919050565b610afa81611027565b610b39576040517f08c379a0000000000000000000000000000000000000000000000000000000008152600401610b309061275e565b60405180910390fd5b50565b60006daaeb6d7670e522a718067333cd4e73ffffffffffffffffffffffffffffffffffffffff163b1115610c36576daaeb6d7670e522a718067333cd4e73ffffffffffffffffffffffffffffffffffffffff1663c617113430836040518363ffffffff1660e01b8152600401610bb39291906128dc565b602060405180830381865afa158015610bd0573d6000803e3d6000fd5b505050506040513d601f19601f82011682018060405250810190610bf4919061291a565b610c3557806040517fede71dcc000000000000000000000000000000000000000000000000000000008152600401610c2c9190611f45565b60405180910390fd5b5b50565b6000610c448261063f565b90508073ffffffffffffffffffffffffffffffffffffffff168373ffffffffffffffffffffffffffffffffffffffff1603610cb4576040517f08c379a0000000000000000000000000000000000000000000000000000000008152600401610cab906129b9565b60405180910390fd5b8073ffffffffffffffffffffffffffffffffffffffff16610cd3611068565b73ffffffffffffffffffffffffffffffffffffffff161480610d025750610d0181610cfc611068565b6109f3565b5b610d41576040517f08c379a0000000000000000000000000000000000000000000000000000000008152600401610d3890612a4b565b60405180910390fd5b610d4b8383611070565b505050565b610d61610d5b611068565b82611129565b610da0576040517f08c379a0000000000000000000000000000000000000000000000000000000008152600401610d9790612add565b60405180910390fd5b610dab8383836111be565b505050565b610dcb838383604051806020016040528060008152506108ac565b505050565b60006002600083815260200190815260200160002060009054906101000a900473ffffffffffffffffffffffffffffffffffffffff169050919050565b600081600001549050919050565b6001816000016000828254019250508190555050565b610e4b8282604051806020016040528060008152506114b7565b5050565b610e61610e5a611068565b8383611512565b5050565b610e76610e70611068565b83611129565b610eb5576040517f08c379a0000000000000000000000000000000000000000000000000000000008152600401610eac90612add565b60405180910390fd5b610ec18484848461167e565b50505050565b606060078054610ed69061246d565b80601f0160208091040260200160405190810160405280929190818152602001828054610f029061246d565b8015610f4f5780601f10610f2457610100808354040283529160200191610f4f565b820191906000526020600020905b815481529060010190602001808311610f3257829003601f168201915b5050505050905090565b606060006001610f68846116da565b01905060008167ffffffffffffffff811115610f8757610f86612029565b5b6040519080825280601f01601f191660200182016040528015610fb95781602001600182028036833780820191505090505b509050600082602001820190505b60011561101c578080600190039150507f3031323334353637383961626364656600000000000000000000000000000000600a86061a8153600a85816110105761100f612afd565b5b04945060008503610fc7575b819350505050919050565b60008073ffffffffffffffffffffffffffffffffffffffff1661104983610dd0565b73ffffffffffffffffffffffffffffffffffffffff1614159050919050565b600033905090565b816004600083815260200190815260200160002060006101000a81548173ffffffffffffffffffffffffffffffffffffffff021916908373ffffffffffffffffffffffffffffffffffffffff160217905550808273ffffffffffffffffffffffffffffffffffffffff166110e38361063f565b73ffffffffffffffffffffffffffffffffffffffff167f8c5be1e5ebec7d5bd14f71427d1e84f3dd0314c0f7b2291e5b200ac8c7c3b92560405160405180910390a45050565b6000806111358361063f565b90508073ffffffffffffffffffffffffffffffffffffffff168473ffffffffffffffffffffffffffffffffffffffff161480611177575061117681856109f3565b5b806111b557508373ffffffffffffffffffffffffffffffffffffffff1661119d8461051d565b73ffffffffffffffffffffffffffffffffffffffff16145b91505092915050565b8273ffffffffffffffffffffffffffffffffffffffff166111de8261063f565b73ffffffffffffffffffffffffffffffffffffffff1614611234576040517f08c379a000000000000000000000000000000000000000000000000000000000815260040161122b90612b9e565b60405180910390fd5b600073ffffffffffffffffffffffffffffffffffffffff168273ffffffffffffffffffffffffffffffffffffffff16036112a3576040517f08c379a000000000000000000000000000000000000000000000000000000000815260040161129a90612c30565b60405180910390fd5b6112b0838383600161182d565b8273ffffffffffffffffffffffffffffffffffffffff166112d08261063f565b73ffffffffffffffffffffffffffffffffffffffff1614611326576040517f08c379a000000000000000000000000000000000000000000000000000000000815260040161131d90612b9e565b60405180910390fd5b6004600082815260200190815260200160002060006101000a81549073ffffffffffffffffffffffffffffffffffffffff02191690556001600360008573ffffffffffffffffffffffffffffffffffffffff1673ffffffffffffffffffffffffffffffffffffffff168152602001908152602001600020600082825403925050819055506001600360008473ffffffffffffffffffffffffffffffffffffffff1673ffffffffffffffffffffffffffffffffffffffff16815260200190815260200160002060008282540192505081905550816002600083815260200190815260200160002060006101000a81548173ffffffffffffffffffffffffffffffffffffffff021916908373ffffffffffffffffffffffffffffffffffffffff160217905550808273ffffffffffffffffffffffffffffffffffffffff168473ffffffffffffffffffffffffffffffffffffffff167fddf252ad1be2c89b69c2b068fc378daa952ba7f163c4a11628f55a4df523b3ef60405160405180910390a46114b28383836001611953565b505050565b6114c18383611959565b6114ce6000848484611b76565b61150d576040517f08c379a000000000000000000000000000000000000000000000000000000000815260040161150490612cc2565b60405180910390fd5b505050565b8173ffffffffffffffffffffffffffffffffffffffff168373ffffffffffffffffffffffffffffffffffffffff1603611580576040517f08c379a000000000000000000000000000000000000000000000000000000000815260040161157790612d2e565b60405180910390fd5b80600560008573ffffffffffffffffffffffffffffffffffffffff1673ffffffffffffffffffffffffffffffffffffffff16815260200190815260200160002060008473ffffffffffffffffffffffffffffffffffffffff1673ffffffffffffffffffffffffffffffffffffffff16815260200190815260200160002060006101000a81548160ff0219169083151502179055508173ffffffffffffffffffffffffffffffffffffffff168373ffffffffffffffffffffffffffffffffffffffff167f17307eab39ab6107e8899845ad3d59bd9653f200f220920489ca2b5937696c31836040516116719190611dd4565b60405180910390a3505050565b6116898484846111be565b61169584848484611b76565b6116d4576040517f08c379a00000000000000000000000000000000000000000000000000000000081526004016116cb90612cc2565b60405180910390fd5b50505050565b600080600090507a184f03e93ff9f4daa797ed6e38ed64bf6a1f0100000000000000008310611738577a184f03e93ff9f4daa797ed6e38ed64bf6a1f010000000000000000838161172e5761172d612afd565b5b0492506040810190505b6d04ee2d6d415b85acef81000000008310611775576d04ee2d6d415b85acef8100000000838161176b5761176a612afd565b5b0492506020810190505b662386f26fc1000083106117a457662386f26fc10000838161179a57611799612afd565b5b0492506010810190505b6305f5e10083106117cd576305f5e10083816117c3576117c2612afd565b5b0492506008810190505b61271083106117f25761271083816117e8576117e7612afd565b5b0492506004810190505b60648310611815576064838161180b5761180a612afd565b5b0492506002810190505b600a8310611824576001810190505b80915050919050565b600181111561194d57600073ffffffffffffffffffffffffffffffffffffffff168473ffffffffffffffffffffffffffffffffffffffff16146118c15780600360008673ffffffffffffffffffffffffffffffffffffffff1673ffffffffffffffffffffffffffffffffffffffff16815260200190815260200160002060008282546118b99190612d7d565b925050819055505b600073ffffffffffffffffffffffffffffffffffffffff168373ffffffffffffffffffffffffffffffffffffffff161461194c5780600360008573ffffffffffffffffffffffffffffffffffffffff1673ffffffffffffffffffffffffffffffffffffffff16815260200190815260200160002060008282546119449190612db1565b925050819055505b5b50505050565b50505050565b600073ffffffffffffffffffffffffffffffffffffffff168273ffffffffffffffffffffffffffffffffffffffff16036119c8576040517f08c379a00000000000000000000000000000000000000000000000000000000081526004016119bf90612e31565b60405180910390fd5b6119d181611027565b15611a11576040517f08c379a0000000000000000000000000000000000000000000000000000000008152600401611a0890612e9d565b60405180910390fd5b611a1f60008383600161182d565b611a2881611027565b15611a68576040517f08c379a0000000000000000000000000000000000000000000000000000000008152600401611a5f90612e9d565b60405180910390fd5b6001600360008473ffffffffffffffffffffffffffffffffffffffff1673ffffffffffffffffffffffffffffffffffffffff16815260200190815260200160002060008282540192505081905550816002600083815260200190815260200160002060006101000a81548173ffffffffffffffffffffffffffffffffffffffff021916908373ffffffffffffffffffffffffffffffffffffffff160217905550808273ffffffffffffffffffffffffffffffffffffffff16600073ffffffffffffffffffffffffffffffffffffffff167fddf252ad1be2c89b69c2b068fc378daa952ba7f163c4a11628f55a4df523b3ef60405160405180910390a4611b72600083836001611953565b5050565b6000611b978473ffffffffffffffffffffffffffffffffffffffff16611cfd565b15611cf0578373ffffffffffffffffffffffffffffffffffffffff1663150b7a02611bc0611068565b8786866040518563ffffffff1660e01b8152600401611be29493929190612f12565b6020604051808303816000875af1925050508015611c1e57506040513d601f19601f82011682018060405250810190611c1b9190612f73565b60015b611ca0573d8060008114611c4e576040519150601f19603f3d011682016040523d82523d6000602084013e611c53565b606091505b506000815103611c98576040517f08c379a0000000000000000000000000000000000000000000000000000000008152600401611c8f90612cc2565b60405180910390fd5b805181602001fd5b63150b7a0260e01b7bffffffffffffffffffffffffffffffffffffffffffffffffffffffff1916817bffffffffffffffffffffffffffffffffffffffffffffffffffffffff191614915050611cf5565b600190505b949350505050565b6000808273ffffffffffffffffffffffffffffffffffffffff163b119050919050565b6000604051905090565b600080fd5b600080fd5b60007fffffffff0000000000000000000000000000000000000000000000000000000082169050919050565b611d6981611d34565b8114611d7457600080fd5b50565b600081359050611d8681611d60565b92915050565b600060208284031215611da257611da1611d2a565b5b6000611db084828501611d77565b91505092915050565b60008115159050919050565b611dce81611db9565b82525050565b6000602082019050611de96000830184611dc5565b92915050565b600081519050919050565b600082825260208201905092915050565b60005b83811015611e29578082015181840152602081019050611e0e565b60008484015250505050565b6000601f19601f8301169050919050565b6000611e5182611def565b611e5b8185611dfa565b9350611e6b818560208601611e0b565b611e7481611e35565b840191505092915050565b60006020820190508181036000830152611e998184611e46565b905092915050565b6000819050919050565b611eb481611ea1565b8114611ebf57600080fd5b50565b600081359050611ed181611eab565b92915050565b600060208284031215611eed57611eec611d2a565b5b6000611efb84828501611ec2565b91505092915050565b600073ffffffffffffffffffffffffffffffffffffffff82169050919050565b6000611f2f82611f04565b9050919050565b611f3f81611f24565b82525050565b6000602082019050611f5a6000830184611f36565b92915050565b611f6981611f24565b8114611f7457600080fd5b50565b600081359050611f8681611f60565b92915050565b60008060408385031215611fa357611fa2611d2a565b5b6000611fb185828601611f77565b9250506020611fc285828601611ec2565b9150509250929050565b600080600060608486031215611fe557611fe4611d2a565b5b6000611ff386828701611f77565b935050602061200486828701611f77565b925050604061201586828701611ec2565b9150509250925092565b600080fd5b600080fd5b7f4e487b7100000000000000000000000000000000000000000000000000000000600052604160045260246000fd5b61206182611e35565b810181811067ffffffffffffffff821117156120805761207f612029565b5b80604052505050565b6000612093611d20565b905061209f8282612058565b919050565b600067ffffffffffffffff8211156120bf576120be612029565b5b6120c882611e35565b9050602081019050919050565b82818337600083830152505050565b60006120f76120f2846120a4565b612089565b90508281526020810184848401111561211357612112612024565b5b61211e8482856120d5565b509392505050565b600082601f83011261213b5761213a61201f565b5b813561214b8482602086016120e4565b91505092915050565b60006020828403121561216a57612169611d2a565b5b600082013567ffffffffffffffff81111561218857612187611d2f565b5b61219484828501612126565b91505092915050565b6000819050919050565b60006121c26121bd6121b884611f04565b61219d565b611f04565b9050919050565b60006121d4826121a7565b9050919050565b60006121e6826121c9565b9050919050565b6121f6816121db565b82525050565b600060208201905061221160008301846121ed565b92915050565b60006020828403121561222d5761222c611d2a565b5b600061223b84828501611f77565b91505092915050565b61224d81611ea1565b82525050565b60006020820190506122686000830184612244565b92915050565b61227781611db9565b811461228257600080fd5b50565b6000813590506122948161226e565b92915050565b600080604083850312156122b1576122b0611d2a565b5b60006122bf85828601611f77565b92505060206122d085828601612285565b9150509250929050565b600067ffffffffffffffff8211156122f5576122f4612029565b5b6122fe82611e35565b9050602081019050919050565b600061231e612319846122da565b612089565b90508281526020810184848401111561233a57612339612024565b5b6123458482856120d5565b509392505050565b600082601f8301126123625761236161201f565b5b813561237284826020860161230b565b91505092915050565b6000806000806080858703121561239557612394611d2a565b5b60006123a387828801611f77565b94505060206123b487828801611f77565b93505060406123c587828801611ec2565b925050606085013567ffffffffffffffff8111156123e6576123e5611d2f565b5b6123f28782880161234d565b91505092959194509250565b6000806040838503121561241557612414611d2a565b5b600061242385828601611f77565b925050602061243485828601611f77565b9150509250929050565b7f4e487b7100000000000000000000000000000000000000000000000000000000600052602260045260246000fd5b6000600282049050600182168061248557607f821691505b6020821081036124985761249761243e565b5b50919050565b60008190508160005260206000209050919050565b60006020601f8301049050919050565b600082821b905092915050565b6000600883026125007fffffffffffffffffffffffffffffffffffffffffffffffffffffffffffffffff826124c3565b61250a86836124c3565b95508019841693508086168417925050509392505050565b600061253d61253861253384611ea1565b61219d565b611ea1565b9050919050565b6000819050919050565b61255783612522565b61256b61256382612544565b8484546124d0565b825550505050565b600090565b612580612573565b61258b81848461254e565b505050565b5b818110156125af576125a4600082612578565b600181019050612591565b5050565b601f8211156125f4576125c58161249e565b6125ce846124b3565b810160208510156125dd578190505b6125f16125e9856124b3565b830182612590565b50505b505050565b600082821c905092915050565b6000612617600019846008026125f9565b1980831691505092915050565b60006126308383612606565b9150826002028217905092915050565b61264982611def565b67ffffffffffffffff81111561266257612661612029565b5b61266c825461246d565b6126778282856125b3565b600060209050601f8311600181146126aa5760008415612698578287015190505b6126a28582612624565b86555061270a565b601f1984166126b88661249e565b60005b828110156126e0578489015182556001820191506020850194506020810190506126bb565b868310156126fd57848901516126f9601f891682612606565b8355505b6001600288020188555050505b505050505050565b7f4552433732313a20696e76616c696420746f6b656e2049440000000000000000600082015250565b6000612748601883611dfa565b915061275382612712565b602082019050919050565b600060208201905081810360008301526127778161273b565b9050919050565b7f4552433732313a2061646472657373207a65726f206973206e6f74206120766160008201527f6c6964206f776e65720000000000000000000000000000000000000000000000602082015250565b60006127da602983611dfa565b91506127e58261277e565b604082019050919050565b60006020820190508181036000830152612809816127cd565b9050919050565b7f4d617820737570706c7920726561636865640000000000000000000000000000600082015250565b6000612846601283611dfa565b915061285182612810565b602082019050919050565b6000602082019050818103600083015261287581612839565b9050919050565b600081905092915050565b600061289282611def565b61289c818561287c565b93506128ac818560208601611e0b565b80840191505092915050565b60006128c48285612887565b91506128d08284612887565b91508190509392505050565b60006040820190506128f16000830185611f36565b6128fe6020830184611f36565b9392505050565b6000815190506129148161226e565b92915050565b6000602082840312156129305761292f611d2a565b5b600061293e84828501612905565b91505092915050565b7f4552433732313a20617070726f76616c20746f2063757272656e74206f776e6560008201527f7200000000000000000000000000000000000000000000000000000000000000602082015250565b60006129a3602183611dfa565b91506129ae82612947565b604082019050919050565b600060208201905081810360008301526129d281612996565b9050919050565b7f4552433732313a20617070726f76652063616c6c6572206973206e6f7420746f60008201527f6b656e206f776e6572206f7220617070726f76656420666f7220616c6c000000602082015250565b6000612a35603d83611dfa565b9150612a40826129d9565b604082019050919050565b60006020820190508181036000830152612a6481612a28565b9050919050565b7f4552433732313a2063616c6c6572206973206e6f7420746f6b656e206f776e6560008201527f72206f7220617070726f76656400000000000000000000000000000000000000602082015250565b6000612ac7602d83611dfa565b9150612ad282612a6b565b604082019050919050565b60006020820190508181036000830152612af681612aba565b9050919050565b7f4e487b7100000000000000000000000000000000000000000000000000000000600052601260045260246000fd5b7f4552433732313a207472616e736665722066726f6d20696e636f72726563742060008201527f6f776e6572000000000000000000000000000000000000000000000000000000602082015250565b6000612b88602583611dfa565b9150612b9382612b2c565b604082019050919050565b60006020820190508181036000830152612bb781612b7b565b9050919050565b7f4552433732313a207472616e7366657220746f20746865207a65726f2061646460008201527f7265737300000000000000000000000000000000000000000000000000000000602082015250565b6000612c1a602483611dfa565b9150612c2582612bbe565b604082019050919050565b60006020820190508181036000830152612c4981612c0d565b9050919050565b7f4552433732313a207472616e7366657220746f206e6f6e20455243373231526560008201527f63656976657220696d706c656d656e7465720000000000000000000000000000602082015250565b6000612cac603283611dfa565b9150612cb782612c50565b604082019050919050565b60006020820190508181036000830152612cdb81612c9f565b9050919050565b7f4552433732313a20617070726f766520746f2063616c6c657200000000000000600082015250565b6000612d18601983611dfa565b9150612d2382612ce2565b602082019050919050565b60006020820190508181036000830152612d4781612d0b565b9050919050565b7f4e487b7100000000000000000000000000000000000000000000000000000000600052601160045260246000fd5b6000612d8882611ea1565b9150612d9383611ea1565b9250828203905081811115612dab57612daa612d4e565b5b92915050565b6000612dbc82611ea1565b9150612dc783611ea1565b9250828201905080821115612ddf57612dde612d4e565b5b92915050565b7f4552433732313a206d696e7420746f20746865207a65726f2061646472657373600082015250565b6000612e1b602083611dfa565b9150612e2682612de5565b602082019050919050565b60006020820190508181036000830152612e4a81612e0e565b9050919050565b7f4552433732313a20746f6b656e20616c7265616479206d696e74656400000000600082015250565b6000612e87601c83611dfa565b9150612e9282612e51565b602082019050919050565b60006020820190508181036000830152612eb681612e7a565b9050919050565b600081519050919050565b600082825260208201905092915050565b6000612ee482612ebd565b612eee8185612ec8565b9350612efe818560208601611e0b565b612f0781611e35565b840191505092915050565b6000608082019050612f276000830187611f36565b612f346020830186611f36565b612f416040830185612244565b8181036060830152612f538184612ed9565b905095945050505050565b600081519050612f6d81611d60565b92915050565b600060208284031215612f8957612f88611d2a565b5b6000612f9784828501612f5e565b9150509291505056fea2646970667358221220ef12d5ff4cbeff824b97659e18bd9b962f14ab0e61351103bc9da29268c5ebbd64736f6c63430008110033",
  "linkReferences": {},
  "deployedLinkReferences": {}
}