{
  "_format": "hh-sol-artifact-1",
  "contractName": "NFT",
  "sourceName": "contracts/NFT.sol",
  "abi": [
    {
      "inputs": [],
      "stateMutability": "nonpayable",
      "type": "constructor"
    },
    {
      "inputs": [
        {
          "internalType": "address",
          "name": "operator",
          "type": "address"
        }
      ],
      "name": "OperatorNotAllowed",
      "type": "error"
    },
    {
      "anonymous": false,
      "inputs": [
        {
          "indexed": true,
          "internalType": "address",
          "name": "owner",
          "type": "address"
        },
        {
          "indexed": true,
          "internalType": "address",
          "name": "approved",
          "type": "address"
        },
        {
          "indexed": true,
          "internalType": "uint256",
          "name": "tokenId",
          "type": "uint256"
        }
      ],
      "name": "Approval",
      "type": "event"
    },
    {
      "anonymous": false,
      "inputs": [
        {
          "indexed": true,
          "internalType": "address",
          "name": "owner",
          "type": "address"
        },
        {
          "indexed": true,
          "internalType": "address",
          "name": "operator",
          "type": "address"
        },
        {
          "indexed": false,
          "internalType": "bool",
          "name": "approved",
          "type": "bool"
        }
      ],
      "name": "ApprovalForAll",
      "type": "event"
    },
    {
      "anonymous": false,
      "inputs": [
        {
          "indexed": true,
          "internalType": "address",
          "name": "from",
          "type": "address"
        },
        {
          "indexed": true,
          "internalType": "address",
          "name": "to",
          "type": "address"
        },
        {
          "indexed": true,
          "internalType": "uint256",
          "name": "tokenId",
          "type": "uint256"
        }
      ],
      "name": "Transfer",
      "type": "event"
    },
    {
      "inputs": [],
      "name": "OPERATOR_FILTER_REGISTRY",
      "outputs": [
        {
          "internalType": "contract IOperatorFilterRegistry",
          "name": "",
          "type": "address"
        }
      ],
      "stateMutability": "view",
      "type": "function"
    },
    {
      "inputs": [
        {
          "internalType": "address",
          "name": "operator",
          "type": "address"
        },
        {
          "internalType": "uint256",
          "name": "tokenId",
          "type": "uint256"
        }
      ],
      "name": "approve",
      "outputs": [],
      "stateMutability": "nonpayable",
      "type": "function"
    },
    {
      "inputs": [
        {
          "internalType": "address",
          "name": "owner",
          "type": "address"
        }
      ],
      "name": "balanceOf",
      "outputs": [
        {
          "internalType": "uint256",
          "name": "",
          "type": "uint256"
        }
      ],
      "stateMutability": "view",
      "type": "function"
    },
    {
      "inputs": [
        {
          "internalType": "uint256",
          "name": "tokenId",
          "type": "uint256"
        }
      ],
      "name": "getApproved",
      "outputs": [
        {
          "internalType": "address",
          "name": "",
          "type": "address"
        }
      ],
      "stateMutability": "view",
      "type": "function"
    },
    {
      "inputs": [
        {
          "internalType": "address",
          "name": "owner",
          "type": "address"
        },
        {
          "internalType": "address",
          "name": "operator",
          "type": "address"
        }
      ],
      "name": "isApprovedForAll",
      "outputs": [
        {
          "internalType": "bool",
          "name": "",
          "type": "bool"
        }
      ],
      "stateMutability": "view",
      "type": "function"
    },
    {
      "inputs": [
        {
          "internalType": "address",
          "name": "recipient",
          "type": "address"
        }
      ],
      "name": "mintTo",
      "outputs": [
        {
          "internalType": "uint256",
          "name": "",
          "type": "uint256"
        }
      ],
      "stateMutability": "nonpayable",
      "type": "function"
    },
    {
      "inputs": [],
      "name": "name",
      "outputs": [
        {
          "internalType": "string",
          "name": "",
          "type": "string"
        }
      ],
      "stateMutability": "view",
      "type": "function"
    },
    {
      "inputs": [
        {
          "internalType": "uint256",
          "name": "tokenId",
          "type": "uint256"
        }
      ],
      "name": "ownerOf",
      "outputs": [
        {
          "internalType": "address",
          "name": "",
          "type": "address"
        }
      ],
      "stateMutability": "view",
      "type": "function"
    },
    {
      "inputs": [
        {
          "internalType": "address",
          "name": "from",
          "type": "address"
        },
        {
          "internalType": "address",
          "name": "to",
          "type": "address"
        },
        {
          "internalType": "uint256",
          "name": "tokenId",
          "type": "uint256"
        }
      ],
      "name": "safeTransferFrom",
      "outputs": [],
      "stateMutability": "nonpayable",
      "type": "function"
    },
    {
      "inputs": [
        {
          "internalType": "address",
          "name": "from",
          "type": "address"
        },
        {
          "internalType": "address",
          "name": "to",
          "type": "address"
        },
        {
          "internalType": "uint256",
          "name": "tokenId",
          "type": "uint256"
        },
        {
          "internalType": "bytes",
          "name": "data",
          "type": "bytes"
        }
      ],
      "name": "safeTransferFrom",
      "outputs": [],
      "stateMutability": "nonpayable",
      "type": "function"
    },
    {
      "inputs": [
        {
          "internalType": "address",
          "name": "operator",
          "type": "address"
        },
        {
          "internalType": "bool",
          "name": "approved",
          "type": "bool"
        }
      ],
      "name": "setApprovalForAll",
      "outputs": [],
      "stateMutability": "nonpayable",
      "type": "function"
    },
    {
      "inputs": [
        {
          "internalType": "bytes4",
          "name": "interfaceId",
          "type": "bytes4"
        }
      ],
      "name": "supportsInterface",
      "outputs": [
        {
          "internalType": "bool",
          "name": "",
          "type": "bool"
        }
      ],
      "stateMutability": "view",
      "type": "function"
    },
    {
      "inputs": [],
      "name": "symbol",
      "outputs": [
        {
          "internalType": "string",
          "name": "",
          "type": "string"
        }
      ],
      "stateMutability": "view",
      "type": "function"
    },
    {
      "inputs": [
        {
          "internalType": "uint256",
          "name": "tokenId",
          "type": "uint256"
        }
      ],
      "name": "tokenURI",
      "outputs": [
        {
          "internalType": "string",
          "name": "",
          "type": "string"
        }
      ],
      "stateMutability": "view",
      "type": "function"
    },
    {
      "inputs": [
        {
          "internalType": "address",
          "name": "from",
          "type": "address"
        },
        {
          "internalType": "address",
          "name": "to",
          "type": "address"
        },
        {
          "internalType": "uint256",
          "name": "tokenId",
          "type": "uint256"
        }
      ],
      "name": "transferFrom",
      "outputs": [],
      "stateMutability": "nonpayable",
      "type": "function"
    }
  ],
  "bytecode": "0x60806040523480156200001157600080fd5b50733cc6cdda760b79bafa08df41ecfa224f810dceb660016040518060400160405280600581526020017f596f5248610000000000000000000000000000000000000000000000000000008152506040518060400160405280600581526020017f594f5248410000000000000000000000000000000000000000000000000000008152508160009081620000a6919062000532565b508060019081620000b8919062000532565b50505060006daaeb6d7670e522a718067333cd4e73ffffffffffffffffffffffffffffffffffffffff163b1115620002b057801562000176576daaeb6d7670e522a718067333cd4e73ffffffffffffffffffffffffffffffffffffffff16637d3e3dbe30846040518363ffffffff1660e01b81526004016200013c9291906200065e565b600060405180830381600087803b1580156200015757600080fd5b505af11580156200016c573d6000803e3d6000fd5b50505050620002af565b600073ffffffffffffffffffffffffffffffffffffffff168273ffffffffffffffffffffffffffffffffffffffff161462000230576daaeb6d7670e522a718067333cd4e73ffffffffffffffffffffffffffffffffffffffff1663a0af290330846040518363ffffffff1660e01b8152600401620001f69291906200065e565b600060405180830381600087803b1580156200021157600080fd5b505af115801562000226573d6000803e3d6000fd5b50505050620002ae565b6daaeb6d7670e522a718067333cd4e73ffffffffffffffffffffffffffffffffffffffff16634420e486306040518263ffffffff1660e01b81526004016200027991906200068b565b600060405180830381600087803b1580156200029457600080fd5b505af1158015620002a9573d6000803e3d6000fd5b505050505b5b5b5050620006a8565b600081519050919050565b7f4e487b7100000000000000000000000000000000000000000000000000000000600052604160045260246000fd5b7f4e487b7100000000000000000000000000000000000000000000000000000000600052602260045260246000fd5b600060028204905060018216806200033a57607f821691505b60208210810362000350576200034f620002f2565b5b50919050565b60008190508160005260206000209050919050565b60006020601f8301049050919050565b600082821b905092915050565b600060088302620003ba7fffffffffffffffffffffffffffffffffffffffffffffffffffffffffffffffff826200037b565b620003c686836200037b565b95508019841693508086168417925050509392505050565b6000819050919050565b6000819050919050565b6000620004136200040d6200040784620003de565b620003e8565b620003de565b9050919050565b6000819050919050565b6200042f83620003f2565b620004476200043e826200041a565b84845462000388565b825550505050565b600090565b6200045e6200044f565b6200046b81848462000424565b505050565b5b8181101562000493576200048760008262000454565b60018101905062000471565b5050565b601f821115620004e257620004ac8162000356565b620004b7846200036b565b81016020851015620004c7578190505b620004df620004d6856200036b565b83018262000470565b50505b505050565b600082821c905092915050565b60006200050760001984600802620004e7565b1980831691505092915050565b6000620005228383620004f4565b9150826002028217905092915050565b6200053d82620002b8565b67ffffffffffffffff811115620005595762000558620002c3565b5b62000565825462000321565b6200057282828562000497565b600060209050601f831160018114620005aa576000841562000595578287015190505b620005a1858262000514565b86555062000611565b601f198416620005ba8662000356565b60005b82811015620005e457848901518255600182019150602085019450602081019050620005bd565b8683101562000604578489015162000600601f891682620004f4565b8355505b6001600288020188555050505b505050505050565b600073ffffffffffffffffffffffffffffffffffffffff82169050919050565b6000620006468262000619565b9050919050565b620006588162000639565b82525050565b60006040820190506200067560008301856200064d565b6200068460208301846200064d565b9392505050565b6000602082019050620006a260008301846200064d565b92915050565b612a1f80620006b86000396000f3fe608060405234801561001057600080fd5b50600436106100f55760003560e01c80636352211e11610097578063a22cb46511610066578063a22cb46514610298578063b88d4fde146102b4578063c87b56dd146102d0578063e985e9c514610300576100f5565b80636352211e146101ea57806370a082311461021a578063755edd171461024a57806395d89b411461027a576100f5565b8063095ea7b3116100d3578063095ea7b31461017857806323b872dd1461019457806341f43434146101b057806342842e0e146101ce576100f5565b806301ffc9a7146100fa57806306fdde031461012a578063081812fc14610148575b600080fd5b610114600480360381019061010f9190611b9f565b610330565b6040516101219190611be7565b60405180910390f35b610132610412565b60405161013f9190611c92565b60405180910390f35b610162600480360381019061015d9190611cea565b6104a4565b60405161016f9190611d58565b60405180910390f35b610192600480360381019061018d9190611d9f565b6104ea565b005b6101ae60048036038101906101a99190611ddf565b610503565b005b6101b8610552565b6040516101c59190611e91565b60405180910390f35b6101e860048036038101906101e39190611ddf565b610564565b005b61020460048036038101906101ff9190611cea565b6105b3565b6040516102119190611d58565b60405180910390f35b610234600480360381019061022f9190611eac565b610639565b6040516102419190611ee8565b60405180910390f35b610264600480360381019061025f9190611eac565b6106f0565b6040516102719190611ee8565b60405180910390f35b61028261071d565b60405161028f9190611c92565b60405180910390f35b6102b260048036038101906102ad9190611f2f565b6107af565b005b6102ce60048036038101906102c991906120a4565b6107c8565b005b6102ea60048036038101906102e59190611cea565b610819565b6040516102f79190611c92565b60405180910390f35b61031a60048036038101906103159190612127565b610881565b6040516103279190611be7565b60405180910390f35b60007f80ac58cd000000000000000000000000000000000000000000000000000000007bffffffffffffffffffffffffffffffffffffffffffffffffffffffff1916827bffffffffffffffffffffffffffffffffffffffffffffffffffffffff191614806103fb57507f5b5e139f000000000000000000000000000000000000000000000000000000007bffffffffffffffffffffffffffffffffffffffffffffffffffffffff1916827bffffffffffffffffffffffffffffffffffffffffffffffffffffffff1916145b8061040b575061040a82610915565b5b9050919050565b60606000805461042190612196565b80601f016020809104026020016040519081016040528092919081815260200182805461044d90612196565b801561049a5780601f1061046f5761010080835404028352916020019161049a565b820191906000526020600020905b81548152906001019060200180831161047d57829003601f168201915b5050505050905090565b60006104af8261097f565b6004600083815260200190815260200160002060009054906101000a900473ffffffffffffffffffffffffffffffffffffffff169050919050565b816104f4816109ca565b6104fe8383610ac7565b505050565b823373ffffffffffffffffffffffffffffffffffffffff168173ffffffffffffffffffffffffffffffffffffffff161461054157610540336109ca565b5b61054c848484610bde565b50505050565b6daaeb6d7670e522a718067333cd4e81565b823373ffffffffffffffffffffffffffffffffffffffff168173ffffffffffffffffffffffffffffffffffffffff16146105a2576105a1336109ca565b5b6105ad848484610c3e565b50505050565b6000806105bf83610c5e565b9050600073ffffffffffffffffffffffffffffffffffffffff168173ffffffffffffffffffffffffffffffffffffffff1603610630576040517f08c379a000000000000000000000000000000000000000000000000000000000815260040161062790612213565b60405180910390fd5b80915050919050565b60008073ffffffffffffffffffffffffffffffffffffffff168273ffffffffffffffffffffffffffffffffffffffff16036106a9576040517f08c379a00000000000000000000000000000000000000000000000000000000081526004016106a0906122a5565b60405180910390fd5b600360008373ffffffffffffffffffffffffffffffffffffffff1673ffffffffffffffffffffffffffffffffffffffff168152602001908152602001600020549050919050565b60006106fc6006610c9b565b60006107086006610cb1565b90506107148382610cbf565b80915050919050565b60606001805461072c90612196565b80601f016020809104026020016040519081016040528092919081815260200182805461075890612196565b80156107a55780601f1061077a576101008083540402835291602001916107a5565b820191906000526020600020905b81548152906001019060200180831161078857829003601f168201915b5050505050905090565b816107b9816109ca565b6107c38383610cdd565b505050565b833373ffffffffffffffffffffffffffffffffffffffff168173ffffffffffffffffffffffffffffffffffffffff161461080657610805336109ca565b5b61081285858585610cf3565b5050505050565b60606108248261097f565b600061082e610d55565b9050600081511161084e5760405180602001604052806000815250610879565b8061085884610d6c565b604051602001610869929190612301565b6040516020818303038152906040525b915050919050565b6000600560008473ffffffffffffffffffffffffffffffffffffffff1673ffffffffffffffffffffffffffffffffffffffff16815260200190815260200160002060008373ffffffffffffffffffffffffffffffffffffffff1673ffffffffffffffffffffffffffffffffffffffff16815260200190815260200160002060009054906101000a900460ff16905092915050565b60007f01ffc9a7000000000000000000000000000000000000000000000000000000007bffffffffffffffffffffffffffffffffffffffffffffffffffffffff1916827bffffffffffffffffffffffffffffffffffffffffffffffffffffffff1916149050919050565b61098881610e3a565b6109c7576040517f08c379a00000000000000000000000000000000000000000000000000000000081526004016109be90612213565b60405180910390fd5b50565b60006daaeb6d7670e522a718067333cd4e73ffffffffffffffffffffffffffffffffffffffff163b1115610ac4576daaeb6d7670e522a718067333cd4e73ffffffffffffffffffffffffffffffffffffffff1663c617113430836040518363ffffffff1660e01b8152600401610a41929190612325565b602060405180830381865afa158015610a5e573d6000803e3d6000fd5b505050506040513d601f19601f82011682018060405250810190610a829190612363565b610ac357806040517fede71dcc000000000000000000000000000000000000000000000000000000008152600401610aba9190611d58565b60405180910390fd5b5b50565b6000610ad2826105b3565b90508073ffffffffffffffffffffffffffffffffffffffff168373ffffffffffffffffffffffffffffffffffffffff1603610b42576040517f08c379a0000000000000000000000000000000000000000000000000000000008152600401610b3990612402565b60405180910390fd5b8073ffffffffffffffffffffffffffffffffffffffff16610b61610e7b565b73ffffffffffffffffffffffffffffffffffffffff161480610b905750610b8f81610b8a610e7b565b610881565b5b610bcf576040517f08c379a0000000000000000000000000000000000000000000000000000000008152600401610bc690612494565b60405180910390fd5b610bd98383610e83565b505050565b610bef610be9610e7b565b82610f3c565b610c2e576040517f08c379a0000000000000000000000000000000000000000000000000000000008152600401610c2590612526565b60405180910390fd5b610c39838383610fd1565b505050565b610c59838383604051806020016040528060008152506107c8565b505050565b60006002600083815260200190815260200160002060009054906101000a900473ffffffffffffffffffffffffffffffffffffffff169050919050565b6001816000016000828254019250508190555050565b600081600001549050919050565b610cd98282604051806020016040528060008152506112ca565b5050565b610cef610ce8610e7b565b8383611325565b5050565b610d04610cfe610e7b565b83610f3c565b610d43576040517f08c379a0000000000000000000000000000000000000000000000000000000008152600401610d3a90612526565b60405180910390fd5b610d4f84848484611491565b50505050565b606060405180602001604052806000815250905090565b606060006001610d7b846114ed565b01905060008167ffffffffffffffff811115610d9a57610d99611f79565b5b6040519080825280601f01601f191660200182016040528015610dcc5781602001600182028036833780820191505090505b509050600082602001820190505b600115610e2f578080600190039150507f3031323334353637383961626364656600000000000000000000000000000000600a86061a8153600a8581610e2357610e22612546565b5b04945060008503610dda575b819350505050919050565b60008073ffffffffffffffffffffffffffffffffffffffff16610e5c83610c5e565b73ffffffffffffffffffffffffffffffffffffffff1614159050919050565b600033905090565b816004600083815260200190815260200160002060006101000a81548173ffffffffffffffffffffffffffffffffffffffff021916908373ffffffffffffffffffffffffffffffffffffffff160217905550808273ffffffffffffffffffffffffffffffffffffffff16610ef6836105b3565b73ffffffffffffffffffffffffffffffffffffffff167f8c5be1e5ebec7d5bd14f71427d1e84f3dd0314c0f7b2291e5b200ac8c7c3b92560405160405180910390a45050565b600080610f48836105b3565b90508073ffffffffffffffffffffffffffffffffffffffff168473ffffffffffffffffffffffffffffffffffffffff161480610f8a5750610f898185610881565b5b80610fc857508373ffffffffffffffffffffffffffffffffffffffff16610fb0846104a4565b73ffffffffffffffffffffffffffffffffffffffff16145b91505092915050565b8273ffffffffffffffffffffffffffffffffffffffff16610ff1826105b3565b73ffffffffffffffffffffffffffffffffffffffff1614611047576040517f08c379a000000000000000000000000000000000000000000000000000000000815260040161103e906125e7565b60405180910390fd5b600073ffffffffffffffffffffffffffffffffffffffff168273ffffffffffffffffffffffffffffffffffffffff16036110b6576040517f08c379a00000000000000000000000000000000000000000000000000000000081526004016110ad90612679565b60405180910390fd5b6110c38383836001611640565b8273ffffffffffffffffffffffffffffffffffffffff166110e3826105b3565b73ffffffffffffffffffffffffffffffffffffffff1614611139576040517f08c379a0000000000000000000000000000000000000000000000000000000008152600401611130906125e7565b60405180910390fd5b6004600082815260200190815260200160002060006101000a81549073ffffffffffffffffffffffffffffffffffffffff02191690556001600360008573ffffffffffffffffffffffffffffffffffffffff1673ffffffffffffffffffffffffffffffffffffffff168152602001908152602001600020600082825403925050819055506001600360008473ffffffffffffffffffffffffffffffffffffffff1673ffffffffffffffffffffffffffffffffffffffff16815260200190815260200160002060008282540192505081905550816002600083815260200190815260200160002060006101000a81548173ffffffffffffffffffffffffffffffffffffffff021916908373ffffffffffffffffffffffffffffffffffffffff160217905550808273ffffffffffffffffffffffffffffffffffffffff168473ffffffffffffffffffffffffffffffffffffffff167fddf252ad1be2c89b69c2b068fc378daa952ba7f163c4a11628f55a4df523b3ef60405160405180910390a46112c58383836001611766565b505050565b6112d4838361176c565b6112e16000848484611989565b611320576040517f08c379a00000000000000000000000000000000000000000000000000000000081526004016113179061270b565b60405180910390fd5b505050565b8173ffffffffffffffffffffffffffffffffffffffff168373ffffffffffffffffffffffffffffffffffffffff1603611393576040517f08c379a000000000000000000000000000000000000000000000000000000000815260040161138a90612777565b60405180910390fd5b80600560008573ffffffffffffffffffffffffffffffffffffffff1673ffffffffffffffffffffffffffffffffffffffff16815260200190815260200160002060008473ffffffffffffffffffffffffffffffffffffffff1673ffffffffffffffffffffffffffffffffffffffff16815260200190815260200160002060006101000a81548160ff0219169083151502179055508173ffffffffffffffffffffffffffffffffffffffff168373ffffffffffffffffffffffffffffffffffffffff167f17307eab39ab6107e8899845ad3d59bd9653f200f220920489ca2b5937696c31836040516114849190611be7565b60405180910390a3505050565b61149c848484610fd1565b6114a884848484611989565b6114e7576040517f08c379a00000000000000000000000000000000000000000000000000000000081526004016114de9061270b565b60405180910390fd5b50505050565b600080600090507a184f03e93ff9f4daa797ed6e38ed64bf6a1f010000000000000000831061154b577a184f03e93ff9f4daa797ed6e38ed64bf6a1f010000000000000000838161154157611540612546565b5b0492506040810190505b6d04ee2d6d415b85acef81000000008310611588576d04ee2d6d415b85acef8100000000838161157e5761157d612546565b5b0492506020810190505b662386f26fc1000083106115b757662386f26fc1000083816115ad576115ac612546565b5b0492506010810190505b6305f5e10083106115e0576305f5e10083816115d6576115d5612546565b5b0492506008810190505b61271083106116055761271083816115fb576115fa612546565b5b0492506004810190505b60648310611628576064838161161e5761161d612546565b5b0492506002810190505b600a8310611637576001810190505b80915050919050565b600181111561176057600073ffffffffffffffffffffffffffffffffffffffff168473ffffffffffffffffffffffffffffffffffffffff16146116d45780600360008673ffffffffffffffffffffffffffffffffffffffff1673ffffffffffffffffffffffffffffffffffffffff16815260200190815260200160002060008282546116cc91906127c6565b925050819055505b600073ffffffffffffffffffffffffffffffffffffffff168373ffffffffffffffffffffffffffffffffffffffff161461175f5780600360008573ffffffffffffffffffffffffffffffffffffffff1673ffffffffffffffffffffffffffffffffffffffff168152602001908152602001600020600082825461175791906127fa565b925050819055505b5b50505050565b50505050565b600073ffffffffffffffffffffffffffffffffffffffff168273ffffffffffffffffffffffffffffffffffffffff16036117db576040517f08c379a00000000000000000000000000000000000000000000000000000000081526004016117d29061287a565b60405180910390fd5b6117e481610e3a565b15611824576040517f08c379a000000000000000000000000000000000000000000000000000000000815260040161181b906128e6565b60405180910390fd5b611832600083836001611640565b61183b81610e3a565b1561187b576040517f08c379a0000000000000000000000000000000000000000000000000000000008152600401611872906128e6565b60405180910390fd5b6001600360008473ffffffffffffffffffffffffffffffffffffffff1673ffffffffffffffffffffffffffffffffffffffff16815260200190815260200160002060008282540192505081905550816002600083815260200190815260200160002060006101000a81548173ffffffffffffffffffffffffffffffffffffffff021916908373ffffffffffffffffffffffffffffffffffffffff160217905550808273ffffffffffffffffffffffffffffffffffffffff16600073ffffffffffffffffffffffffffffffffffffffff167fddf252ad1be2c89b69c2b068fc378daa952ba7f163c4a11628f55a4df523b3ef60405160405180910390a4611985600083836001611766565b5050565b60006119aa8473ffffffffffffffffffffffffffffffffffffffff16611b10565b15611b03578373ffffffffffffffffffffffffffffffffffffffff1663150b7a026119d3610e7b565b8786866040518563ffffffff1660e01b81526004016119f5949392919061295b565b6020604051808303816000875af1925050508015611a3157506040513d601f19601f82011682018060405250810190611a2e91906129bc565b60015b611ab3573d8060008114611a61576040519150601f19603f3d011682016040523d82523d6000602084013e611a66565b606091505b506000815103611aab576040517f08c379a0000000000000000000000000000000000000000000000000000000008152600401611aa29061270b565b60405180910390fd5b805181602001fd5b63150b7a0260e01b7bffffffffffffffffffffffffffffffffffffffffffffffffffffffff1916817bffffffffffffffffffffffffffffffffffffffffffffffffffffffff191614915050611b08565b600190505b949350505050565b6000808273ffffffffffffffffffffffffffffffffffffffff163b119050919050565b6000604051905090565b600080fd5b600080fd5b60007fffffffff0000000000000000000000000000000000000000000000000000000082169050919050565b611b7c81611b47565b8114611b8757600080fd5b50565b600081359050611b9981611b73565b92915050565b600060208284031215611bb557611bb4611b3d565b5b6000611bc384828501611b8a565b91505092915050565b60008115159050919050565b611be181611bcc565b82525050565b6000602082019050611bfc6000830184611bd8565b92915050565b600081519050919050565b600082825260208201905092915050565b60005b83811015611c3c578082015181840152602081019050611c21565b60008484015250505050565b6000601f19601f8301169050919050565b6000611c6482611c02565b611c6e8185611c0d565b9350611c7e818560208601611c1e565b611c8781611c48565b840191505092915050565b60006020820190508181036000830152611cac8184611c59565b905092915050565b6000819050919050565b611cc781611cb4565b8114611cd257600080fd5b50565b600081359050611ce481611cbe565b92915050565b600060208284031215611d0057611cff611b3d565b5b6000611d0e84828501611cd5565b91505092915050565b600073ffffffffffffffffffffffffffffffffffffffff82169050919050565b6000611d4282611d17565b9050919050565b611d5281611d37565b82525050565b6000602082019050611d6d6000830184611d49565b92915050565b611d7c81611d37565b8114611d8757600080fd5b50565b600081359050611d9981611d73565b92915050565b60008060408385031215611db657611db5611b3d565b5b6000611dc485828601611d8a565b9250506020611dd585828601611cd5565b9150509250929050565b600080600060608486031215611df857611df7611b3d565b5b6000611e0686828701611d8a565b9350506020611e1786828701611d8a565b9250506040611e2886828701611cd5565b9150509250925092565b6000819050919050565b6000611e57611e52611e4d84611d17565b611e32565b611d17565b9050919050565b6000611e6982611e3c565b9050919050565b6000611e7b82611e5e565b9050919050565b611e8b81611e70565b82525050565b6000602082019050611ea66000830184611e82565b92915050565b600060208284031215611ec257611ec1611b3d565b5b6000611ed084828501611d8a565b91505092915050565b611ee281611cb4565b82525050565b6000602082019050611efd6000830184611ed9565b92915050565b611f0c81611bcc565b8114611f1757600080fd5b50565b600081359050611f2981611f03565b92915050565b60008060408385031215611f4657611f45611b3d565b5b6000611f5485828601611d8a565b9250506020611f6585828601611f1a565b9150509250929050565b600080fd5b600080fd5b7f4e487b7100000000000000000000000000000000000000000000000000000000600052604160045260246000fd5b611fb182611c48565b810181811067ffffffffffffffff82111715611fd057611fcf611f79565b5b80604052505050565b6000611fe3611b33565b9050611fef8282611fa8565b919050565b600067ffffffffffffffff82111561200f5761200e611f79565b5b61201882611c48565b9050602081019050919050565b82818337600083830152505050565b600061204761204284611ff4565b611fd9565b90508281526020810184848401111561206357612062611f74565b5b61206e848285612025565b509392505050565b600082601f83011261208b5761208a611f6f565b5b813561209b848260208601612034565b91505092915050565b600080600080608085870312156120be576120bd611b3d565b5b60006120cc87828801611d8a565b94505060206120dd87828801611d8a565b93505060406120ee87828801611cd5565b925050606085013567ffffffffffffffff81111561210f5761210e611b42565b5b61211b87828801612076565b91505092959194509250565b6000806040838503121561213e5761213d611b3d565b5b600061214c85828601611d8a565b925050602061215d85828601611d8a565b9150509250929050565b7f4e487b7100000000000000000000000000000000000000000000000000000000600052602260045260246000fd5b600060028204905060018216806121ae57607f821691505b6020821081036121c1576121c0612167565b5b50919050565b7f4552433732313a20696e76616c696420746f6b656e2049440000000000000000600082015250565b60006121fd601883611c0d565b9150612208826121c7565b602082019050919050565b6000602082019050818103600083015261222c816121f0565b9050919050565b7f4552433732313a2061646472657373207a65726f206973206e6f74206120766160008201527f6c6964206f776e65720000000000000000000000000000000000000000000000602082015250565b600061228f602983611c0d565b915061229a82612233565b604082019050919050565b600060208201905081810360008301526122be81612282565b9050919050565b600081905092915050565b60006122db82611c02565b6122e581856122c5565b93506122f5818560208601611c1e565b80840191505092915050565b600061230d82856122d0565b915061231982846122d0565b91508190509392505050565b600060408201905061233a6000830185611d49565b6123476020830184611d49565b9392505050565b60008151905061235d81611f03565b92915050565b60006020828403121561237957612378611b3d565b5b60006123878482850161234e565b91505092915050565b7f4552433732313a20617070726f76616c20746f2063757272656e74206f776e6560008201527f7200000000000000000000000000000000000000000000000000000000000000602082015250565b60006123ec602183611c0d565b91506123f782612390565b604082019050919050565b6000602082019050818103600083015261241b816123df565b9050919050565b7f4552433732313a20617070726f76652063616c6c6572206973206e6f7420746f60008201527f6b656e206f776e6572206f7220617070726f76656420666f7220616c6c000000602082015250565b600061247e603d83611c0d565b915061248982612422565b604082019050919050565b600060208201905081810360008301526124ad81612471565b9050919050565b7f4552433732313a2063616c6c6572206973206e6f7420746f6b656e206f776e6560008201527f72206f7220617070726f76656400000000000000000000000000000000000000602082015250565b6000612510602d83611c0d565b915061251b826124b4565b604082019050919050565b6000602082019050818103600083015261253f81612503565b9050919050565b7f4e487b7100000000000000000000000000000000000000000000000000000000600052601260045260246000fd5b7f4552433732313a207472616e736665722066726f6d20696e636f72726563742060008201527f6f776e6572000000000000000000000000000000000000000000000000000000602082015250565b60006125d1602583611c0d565b91506125dc82612575565b604082019050919050565b60006020820190508181036000830152612600816125c4565b9050919050565b7f4552433732313a207472616e7366657220746f20746865207a65726f2061646460008201527f7265737300000000000000000000000000000000000000000000000000000000602082015250565b6000612663602483611c0d565b915061266e82612607565b604082019050919050565b6000602082019050818103600083015261269281612656565b9050919050565b7f4552433732313a207472616e7366657220746f206e6f6e20455243373231526560008201527f63656976657220696d706c656d656e7465720000000000000000000000000000602082015250565b60006126f5603283611c0d565b915061270082612699565b604082019050919050565b60006020820190508181036000830152612724816126e8565b9050919050565b7f4552433732313a20617070726f766520746f2063616c6c657200000000000000600082015250565b6000612761601983611c0d565b915061276c8261272b565b602082019050919050565b6000602082019050818103600083015261279081612754565b9050919050565b7f4e487b7100000000000000000000000000000000000000000000000000000000600052601160045260246000fd5b60006127d182611cb4565b91506127dc83611cb4565b92508282039050818111156127f4576127f3612797565b5b92915050565b600061280582611cb4565b915061281083611cb4565b925082820190508082111561282857612827612797565b5b92915050565b7f4552433732313a206d696e7420746f20746865207a65726f2061646472657373600082015250565b6000612864602083611c0d565b915061286f8261282e565b602082019050919050565b6000602082019050818103600083015261289381612857565b9050919050565b7f4552433732313a20746f6b656e20616c7265616479206d696e74656400000000600082015250565b60006128d0601c83611c0d565b91506128db8261289a565b602082019050919050565b600060208201905081810360008301526128ff816128c3565b9050919050565b600081519050919050565b600082825260208201905092915050565b600061292d82612906565b6129378185612911565b9350612947818560208601611c1e565b61295081611c48565b840191505092915050565b60006080820190506129706000830187611d49565b61297d6020830186611d49565b61298a6040830185611ed9565b818103606083015261299c8184612922565b905095945050505050565b6000815190506129b681611b73565b92915050565b6000602082840312156129d2576129d1611b3d565b5b60006129e0848285016129a7565b9150509291505056fea2646970667358221220a01a79d60ca7b0a4aed32c6aba5ae295750f63e6f1d5177807fdda35ee2b527a64736f6c63430008110033",
  "linkReferences": {},
  "deployedLinkReferences": {}
}