{
  "_format": "hh-sol-artifact-1",
  "contractName": "NFT",
  "sourceName": "contracts/NFT.sol",
  "abi": [
    {
      "inputs": [],
      "stateMutability": "nonpayable",
      "type": "constructor"
    },
    {
      "inputs": [
        {
          "internalType": "address",
          "name": "operator",
          "type": "address"
        }
      ],
      "name": "OperatorNotAllowed",
      "type": "error"
    },
    {
      "anonymous": false,
      "inputs": [
        {
          "indexed": true,
          "internalType": "address",
          "name": "owner",
          "type": "address"
        },
        {
          "indexed": true,
          "internalType": "address",
          "name": "approved",
          "type": "address"
        },
        {
          "indexed": true,
          "internalType": "uint256",
          "name": "tokenId",
          "type": "uint256"
        }
      ],
      "name": "Approval",
      "type": "event"
    },
    {
      "anonymous": false,
      "inputs": [
        {
          "indexed": true,
          "internalType": "address",
          "name": "owner",
          "type": "address"
        },
        {
          "indexed": true,
          "internalType": "address",
          "name": "operator",
          "type": "address"
        },
        {
          "indexed": false,
          "internalType": "bool",
          "name": "approved",
          "type": "bool"
        }
      ],
      "name": "ApprovalForAll",
      "type": "event"
    },
    {
      "anonymous": false,
      "inputs": [
        {
          "indexed": true,
          "internalType": "address",
          "name": "from",
          "type": "address"
        },
        {
          "indexed": true,
          "internalType": "address",
          "name": "to",
          "type": "address"
        },
        {
          "indexed": true,
          "internalType": "uint256",
          "name": "tokenId",
          "type": "uint256"
        }
      ],
      "name": "Transfer",
      "type": "event"
    },
    {
      "inputs": [],
      "name": "OPERATOR_FILTER_REGISTRY",
      "outputs": [
        {
          "internalType": "contract IOperatorFilterRegistry",
          "name": "",
          "type": "address"
        }
      ],
      "stateMutability": "view",
      "type": "function"
    },
    {
      "inputs": [
        {
          "internalType": "address",
          "name": "operator",
          "type": "address"
        },
        {
          "internalType": "uint256",
          "name": "tokenId",
          "type": "uint256"
        }
      ],
      "name": "approve",
      "outputs": [],
      "stateMutability": "nonpayable",
      "type": "function"
    },
    {
      "inputs": [
        {
          "internalType": "address",
          "name": "owner",
          "type": "address"
        }
      ],
      "name": "balanceOf",
      "outputs": [
        {
          "internalType": "uint256",
          "name": "",
          "type": "uint256"
        }
      ],
      "stateMutability": "view",
      "type": "function"
    },
    {
      "inputs": [],
      "name": "baseTokenURI",
      "outputs": [
        {
          "internalType": "string",
          "name": "",
          "type": "string"
        }
      ],
      "stateMutability": "view",
      "type": "function"
    },
    {
      "inputs": [
        {
          "internalType": "uint256",
          "name": "tokenId",
          "type": "uint256"
        }
      ],
      "name": "getApproved",
      "outputs": [
        {
          "internalType": "address",
          "name": "",
          "type": "address"
        }
      ],
      "stateMutability": "view",
      "type": "function"
    },
    {
      "inputs": [
        {
          "internalType": "address",
          "name": "owner",
          "type": "address"
        },
        {
          "internalType": "address",
          "name": "operator",
          "type": "address"
        }
      ],
      "name": "isApprovedForAll",
      "outputs": [
        {
          "internalType": "bool",
          "name": "",
          "type": "bool"
        }
      ],
      "stateMutability": "view",
      "type": "function"
    },
    {
      "inputs": [
        {
          "internalType": "address",
          "name": "recipient",
          "type": "address"
        }
      ],
      "name": "mintTo",
      "outputs": [
        {
          "internalType": "uint256",
          "name": "",
          "type": "uint256"
        }
      ],
      "stateMutability": "nonpayable",
      "type": "function"
    },
    {
      "inputs": [],
      "name": "name",
      "outputs": [
        {
          "internalType": "string",
          "name": "",
          "type": "string"
        }
      ],
      "stateMutability": "view",
      "type": "function"
    },
    {
      "inputs": [
        {
          "internalType": "uint256",
          "name": "tokenId",
          "type": "uint256"
        }
      ],
      "name": "ownerOf",
      "outputs": [
        {
          "internalType": "address",
          "name": "",
          "type": "address"
        }
      ],
      "stateMutability": "view",
      "type": "function"
    },
    {
      "inputs": [
        {
          "internalType": "address",
          "name": "from",
          "type": "address"
        },
        {
          "internalType": "address",
          "name": "to",
          "type": "address"
        },
        {
          "internalType": "uint256",
          "name": "tokenId",
          "type": "uint256"
        }
      ],
      "name": "safeTransferFrom",
      "outputs": [],
      "stateMutability": "nonpayable",
      "type": "function"
    },
    {
      "inputs": [
        {
          "internalType": "address",
          "name": "from",
          "type": "address"
        },
        {
          "internalType": "address",
          "name": "to",
          "type": "address"
        },
        {
          "internalType": "uint256",
          "name": "tokenId",
          "type": "uint256"
        },
        {
          "internalType": "bytes",
          "name": "data",
          "type": "bytes"
        }
      ],
      "name": "safeTransferFrom",
      "outputs": [],
      "stateMutability": "nonpayable",
      "type": "function"
    },
    {
      "inputs": [
        {
          "internalType": "address",
          "name": "operator",
          "type": "address"
        },
        {
          "internalType": "bool",
          "name": "approved",
          "type": "bool"
        }
      ],
      "name": "setApprovalForAll",
      "outputs": [],
      "stateMutability": "nonpayable",
      "type": "function"
    },
    {
      "inputs": [
        {
          "internalType": "string",
          "name": "_baseTokenURI",
          "type": "string"
        }
      ],
      "name": "setBaseTokenURI",
      "outputs": [],
      "stateMutability": "nonpayable",
      "type": "function"
    },
    {
      "inputs": [
        {
          "internalType": "bytes4",
          "name": "interfaceId",
          "type": "bytes4"
        }
      ],
      "name": "supportsInterface",
      "outputs": [
        {
          "internalType": "bool",
          "name": "",
          "type": "bool"
        }
      ],
      "stateMutability": "view",
      "type": "function"
    },
    {
      "inputs": [],
      "name": "symbol",
      "outputs": [
        {
          "internalType": "string",
          "name": "",
          "type": "string"
        }
      ],
      "stateMutability": "view",
      "type": "function"
    },
    {
      "inputs": [
        {
          "internalType": "uint256",
          "name": "tokenId",
          "type": "uint256"
        }
      ],
      "name": "tokenURI",
      "outputs": [
        {
          "internalType": "string",
          "name": "",
          "type": "string"
        }
      ],
      "stateMutability": "view",
      "type": "function"
    },
    {
      "inputs": [
        {
          "internalType": "address",
          "name": "from",
          "type": "address"
        },
        {
          "internalType": "address",
          "name": "to",
          "type": "address"
        },
        {
          "internalType": "uint256",
          "name": "tokenId",
          "type": "uint256"
        }
      ],
      "name": "transferFrom",
      "outputs": [],
      "stateMutability": "nonpayable",
      "type": "function"
    }
  ],
  "bytecode": "0x60806040523480156200001157600080fd5b50733cc6cdda760b79bafa08df41ecfa224f810dceb660016040518060400160405280600581526020017f596f5248610000000000000000000000000000000000000000000000000000008152506040518060400160405280600581526020017f594f5248410000000000000000000000000000000000000000000000000000008152508160009081620000a6919062000553565b508060019081620000b8919062000553565b50505060006daaeb6d7670e522a718067333cd4e73ffffffffffffffffffffffffffffffffffffffff163b1115620002b057801562000176576daaeb6d7670e522a718067333cd4e73ffffffffffffffffffffffffffffffffffffffff16637d3e3dbe30846040518363ffffffff1660e01b81526004016200013c9291906200067f565b600060405180830381600087803b1580156200015757600080fd5b505af11580156200016c573d6000803e3d6000fd5b50505050620002af565b600073ffffffffffffffffffffffffffffffffffffffff168273ffffffffffffffffffffffffffffffffffffffff161462000230576daaeb6d7670e522a718067333cd4e73ffffffffffffffffffffffffffffffffffffffff1663a0af290330846040518363ffffffff1660e01b8152600401620001f69291906200067f565b600060405180830381600087803b1580156200021157600080fd5b505af115801562000226573d6000803e3d6000fd5b50505050620002ae565b6daaeb6d7670e522a718067333cd4e73ffffffffffffffffffffffffffffffffffffffff16634420e486306040518263ffffffff1660e01b8152600401620002799190620006ac565b600060405180830381600087803b1580156200029457600080fd5b505af1158015620002a9573d6000803e3d6000fd5b505050505b5b5b50506040518060200160405280600081525060079081620002d2919062000553565b50620006c9565b600081519050919050565b7f4e487b7100000000000000000000000000000000000000000000000000000000600052604160045260246000fd5b7f4e487b7100000000000000000000000000000000000000000000000000000000600052602260045260246000fd5b600060028204905060018216806200035b57607f821691505b60208210810362000371576200037062000313565b5b50919050565b60008190508160005260206000209050919050565b60006020601f8301049050919050565b600082821b905092915050565b600060088302620003db7fffffffffffffffffffffffffffffffffffffffffffffffffffffffffffffffff826200039c565b620003e786836200039c565b95508019841693508086168417925050509392505050565b6000819050919050565b6000819050919050565b6000620004346200042e6200042884620003ff565b62000409565b620003ff565b9050919050565b6000819050919050565b620004508362000413565b620004686200045f826200043b565b848454620003a9565b825550505050565b600090565b6200047f62000470565b6200048c81848462000445565b505050565b5b81811015620004b457620004a860008262000475565b60018101905062000492565b5050565b601f8211156200050357620004cd8162000377565b620004d8846200038c565b81016020851015620004e8578190505b62000500620004f7856200038c565b83018262000491565b50505b505050565b600082821c905092915050565b6000620005286000198460080262000508565b1980831691505092915050565b600062000543838362000515565b9150826002028217905092915050565b6200055e82620002d9565b67ffffffffffffffff8111156200057a5762000579620002e4565b5b62000586825462000342565b62000593828285620004b8565b600060209050601f831160018114620005cb5760008415620005b6578287015190505b620005c2858262000535565b86555062000632565b601f198416620005db8662000377565b60005b828110156200060557848901518255600182019150602085019450602081019050620005de565b8683101562000625578489015162000621601f89168262000515565b8355505b6001600288020188555050505b505050505050565b600073ffffffffffffffffffffffffffffffffffffffff82169050919050565b600062000667826200063a565b9050919050565b62000679816200065a565b82525050565b60006040820190506200069660008301856200066e565b620006a560208301846200066e565b9392505050565b6000602082019050620006c360008301846200066e565b92915050565b612ee980620006d96000396000f3fe608060405234801561001057600080fd5b506004361061010b5760003560e01c80636352211e116100a2578063a22cb46511610071578063a22cb465146102ca578063b88d4fde146102e6578063c87b56dd14610302578063d547cfb714610332578063e985e9c5146103505761010b565b80636352211e1461021c57806370a082311461024c578063755edd171461027c57806395d89b41146102ac5761010b565b806323b872dd116100de57806323b872dd146101aa57806330176e13146101c657806341f43434146101e257806342842e0e146102005761010b565b806301ffc9a71461011057806306fdde0314610140578063081812fc1461015e578063095ea7b31461018e575b600080fd5b61012a60048036038101906101259190611d0b565b610380565b6040516101379190611d53565b60405180910390f35b610148610462565b6040516101559190611dfe565b60405180910390f35b61017860048036038101906101739190611e56565b6104f4565b6040516101859190611ec4565b60405180910390f35b6101a860048036038101906101a39190611f0b565b61053a565b005b6101c460048036038101906101bf9190611f4b565b610553565b005b6101e060048036038101906101db91906120d3565b6105a2565b005b6101ea6105b5565b6040516101f7919061217b565b60405180910390f35b61021a60048036038101906102159190611f4b565b6105c7565b005b61023660048036038101906102319190611e56565b610616565b6040516102439190611ec4565b60405180910390f35b61026660048036038101906102619190612196565b61069c565b60405161027391906121d2565b60405180910390f35b61029660048036038101906102919190612196565b610753565b6040516102a391906121d2565b60405180910390f35b6102b4610780565b6040516102c19190611dfe565b60405180910390f35b6102e460048036038101906102df9190612219565b610812565b005b61030060048036038101906102fb91906122fa565b61082b565b005b61031c60048036038101906103179190611e56565b61087c565b6040516103299190611dfe565b60405180910390f35b61033a6108e4565b6040516103479190611dfe565b60405180910390f35b61036a6004803603810190610365919061237d565b610972565b6040516103779190611d53565b60405180910390f35b60007f80ac58cd000000000000000000000000000000000000000000000000000000007bffffffffffffffffffffffffffffffffffffffffffffffffffffffff1916827bffffffffffffffffffffffffffffffffffffffffffffffffffffffff1916148061044b57507f5b5e139f000000000000000000000000000000000000000000000000000000007bffffffffffffffffffffffffffffffffffffffffffffffffffffffff1916827bffffffffffffffffffffffffffffffffffffffffffffffffffffffff1916145b8061045b575061045a82610a06565b5b9050919050565b606060008054610471906123ec565b80601f016020809104026020016040519081016040528092919081815260200182805461049d906123ec565b80156104ea5780601f106104bf576101008083540402835291602001916104ea565b820191906000526020600020905b8154815290600101906020018083116104cd57829003601f168201915b5050505050905090565b60006104ff82610a70565b6004600083815260200190815260200160002060009054906101000a900473ffffffffffffffffffffffffffffffffffffffff169050919050565b8161054481610abb565b61054e8383610bb8565b505050565b823373ffffffffffffffffffffffffffffffffffffffff168173ffffffffffffffffffffffffffffffffffffffff16146105915761059033610abb565b5b61059c848484610ccf565b50505050565b80600790816105b191906125bf565b5050565b6daaeb6d7670e522a718067333cd4e81565b823373ffffffffffffffffffffffffffffffffffffffff168173ffffffffffffffffffffffffffffffffffffffff16146106055761060433610abb565b5b610610848484610d2f565b50505050565b60008061062283610d4f565b9050600073ffffffffffffffffffffffffffffffffffffffff168173ffffffffffffffffffffffffffffffffffffffff1603610693576040517f08c379a000000000000000000000000000000000000000000000000000000000815260040161068a906126dd565b60405180910390fd5b80915050919050565b60008073ffffffffffffffffffffffffffffffffffffffff168273ffffffffffffffffffffffffffffffffffffffff160361070c576040517f08c379a00000000000000000000000000000000000000000000000000000000081526004016107039061276f565b60405180910390fd5b600360008373ffffffffffffffffffffffffffffffffffffffff1673ffffffffffffffffffffffffffffffffffffffff168152602001908152602001600020549050919050565b600061075f6006610d8c565b600061076b6006610da2565b90506107778382610db0565b80915050919050565b60606001805461078f906123ec565b80601f01602080910402602001604051908101604052809291908181526020018280546107bb906123ec565b80156108085780601f106107dd57610100808354040283529160200191610808565b820191906000526020600020905b8154815290600101906020018083116107eb57829003601f168201915b5050505050905090565b8161081c81610abb565b6108268383610dce565b505050565b833373ffffffffffffffffffffffffffffffffffffffff168173ffffffffffffffffffffffffffffffffffffffff16146108695761086833610abb565b5b61087585858585610de4565b5050505050565b606061088782610a70565b6000610891610e46565b905060008151116108b157604051806020016040528060008152506108dc565b806108bb84610ed8565b6040516020016108cc9291906127cb565b6040516020818303038152906040525b915050919050565b600780546108f1906123ec565b80601f016020809104026020016040519081016040528092919081815260200182805461091d906123ec565b801561096a5780601f1061093f5761010080835404028352916020019161096a565b820191906000526020600020905b81548152906001019060200180831161094d57829003601f168201915b505050505081565b6000600560008473ffffffffffffffffffffffffffffffffffffffff1673ffffffffffffffffffffffffffffffffffffffff16815260200190815260200160002060008373ffffffffffffffffffffffffffffffffffffffff1673ffffffffffffffffffffffffffffffffffffffff16815260200190815260200160002060009054906101000a900460ff16905092915050565b60007f01ffc9a7000000000000000000000000000000000000000000000000000000007bffffffffffffffffffffffffffffffffffffffffffffffffffffffff1916827bffffffffffffffffffffffffffffffffffffffffffffffffffffffff1916149050919050565b610a7981610fa6565b610ab8576040517f08c379a0000000000000000000000000000000000000000000000000000000008152600401610aaf906126dd565b60405180910390fd5b50565b60006daaeb6d7670e522a718067333cd4e73ffffffffffffffffffffffffffffffffffffffff163b1115610bb5576daaeb6d7670e522a718067333cd4e73ffffffffffffffffffffffffffffffffffffffff1663c617113430836040518363ffffffff1660e01b8152600401610b329291906127ef565b602060405180830381865afa158015610b4f573d6000803e3d6000fd5b505050506040513d601f19601f82011682018060405250810190610b73919061282d565b610bb457806040517fede71dcc000000000000000000000000000000000000000000000000000000008152600401610bab9190611ec4565b60405180910390fd5b5b50565b6000610bc382610616565b90508073ffffffffffffffffffffffffffffffffffffffff168373ffffffffffffffffffffffffffffffffffffffff1603610c33576040517f08c379a0000000000000000000000000000000000000000000000000000000008152600401610c2a906128cc565b60405180910390fd5b8073ffffffffffffffffffffffffffffffffffffffff16610c52610fe7565b73ffffffffffffffffffffffffffffffffffffffff161480610c815750610c8081610c7b610fe7565b610972565b5b610cc0576040517f08c379a0000000000000000000000000000000000000000000000000000000008152600401610cb79061295e565b60405180910390fd5b610cca8383610fef565b505050565b610ce0610cda610fe7565b826110a8565b610d1f576040517f08c379a0000000000000000000000000000000000000000000000000000000008152600401610d16906129f0565b60405180910390fd5b610d2a83838361113d565b505050565b610d4a8383836040518060200160405280600081525061082b565b505050565b60006002600083815260200190815260200160002060009054906101000a900473ffffffffffffffffffffffffffffffffffffffff169050919050565b6001816000016000828254019250508190555050565b600081600001549050919050565b610dca828260405180602001604052806000815250611436565b5050565b610de0610dd9610fe7565b8383611491565b5050565b610df5610def610fe7565b836110a8565b610e34576040517f08c379a0000000000000000000000000000000000000000000000000000000008152600401610e2b906129f0565b60405180910390fd5b610e40848484846115fd565b50505050565b606060078054610e55906123ec565b80601f0160208091040260200160405190810160405280929190818152602001828054610e81906123ec565b8015610ece5780601f10610ea357610100808354040283529160200191610ece565b820191906000526020600020905b815481529060010190602001808311610eb157829003601f168201915b5050505050905090565b606060006001610ee784611659565b01905060008167ffffffffffffffff811115610f0657610f05611fa8565b5b6040519080825280601f01601f191660200182016040528015610f385781602001600182028036833780820191505090505b509050600082602001820190505b600115610f9b578080600190039150507f3031323334353637383961626364656600000000000000000000000000000000600a86061a8153600a8581610f8f57610f8e612a10565b5b04945060008503610f46575b819350505050919050565b60008073ffffffffffffffffffffffffffffffffffffffff16610fc883610d4f565b73ffffffffffffffffffffffffffffffffffffffff1614159050919050565b600033905090565b816004600083815260200190815260200160002060006101000a81548173ffffffffffffffffffffffffffffffffffffffff021916908373ffffffffffffffffffffffffffffffffffffffff160217905550808273ffffffffffffffffffffffffffffffffffffffff1661106283610616565b73ffffffffffffffffffffffffffffffffffffffff167f8c5be1e5ebec7d5bd14f71427d1e84f3dd0314c0f7b2291e5b200ac8c7c3b92560405160405180910390a45050565b6000806110b483610616565b90508073ffffffffffffffffffffffffffffffffffffffff168473ffffffffffffffffffffffffffffffffffffffff1614806110f657506110f58185610972565b5b8061113457508373ffffffffffffffffffffffffffffffffffffffff1661111c846104f4565b73ffffffffffffffffffffffffffffffffffffffff16145b91505092915050565b8273ffffffffffffffffffffffffffffffffffffffff1661115d82610616565b73ffffffffffffffffffffffffffffffffffffffff16146111b3576040517f08c379a00000000000000000000000000000000000000000000000000000000081526004016111aa90612ab1565b60405180910390fd5b600073ffffffffffffffffffffffffffffffffffffffff168273ffffffffffffffffffffffffffffffffffffffff1603611222576040517f08c379a000000000000000000000000000000000000000000000000000000000815260040161121990612b43565b60405180910390fd5b61122f83838360016117ac565b8273ffffffffffffffffffffffffffffffffffffffff1661124f82610616565b73ffffffffffffffffffffffffffffffffffffffff16146112a5576040517f08c379a000000000000000000000000000000000000000000000000000000000815260040161129c90612ab1565b60405180910390fd5b6004600082815260200190815260200160002060006101000a81549073ffffffffffffffffffffffffffffffffffffffff02191690556001600360008573ffffffffffffffffffffffffffffffffffffffff1673ffffffffffffffffffffffffffffffffffffffff168152602001908152602001600020600082825403925050819055506001600360008473ffffffffffffffffffffffffffffffffffffffff1673ffffffffffffffffffffffffffffffffffffffff16815260200190815260200160002060008282540192505081905550816002600083815260200190815260200160002060006101000a81548173ffffffffffffffffffffffffffffffffffffffff021916908373ffffffffffffffffffffffffffffffffffffffff160217905550808273ffffffffffffffffffffffffffffffffffffffff168473ffffffffffffffffffffffffffffffffffffffff167fddf252ad1be2c89b69c2b068fc378daa952ba7f163c4a11628f55a4df523b3ef60405160405180910390a461143183838360016118d2565b505050565b61144083836118d8565b61144d6000848484611af5565b61148c576040517f08c379a000000000000000000000000000000000000000000000000000000000815260040161148390612bd5565b60405180910390fd5b505050565b8173ffffffffffffffffffffffffffffffffffffffff168373ffffffffffffffffffffffffffffffffffffffff16036114ff576040517f08c379a00000000000000000000000000000000000000000000000000000000081526004016114f690612c41565b60405180910390fd5b80600560008573ffffffffffffffffffffffffffffffffffffffff1673ffffffffffffffffffffffffffffffffffffffff16815260200190815260200160002060008473ffffffffffffffffffffffffffffffffffffffff1673ffffffffffffffffffffffffffffffffffffffff16815260200190815260200160002060006101000a81548160ff0219169083151502179055508173ffffffffffffffffffffffffffffffffffffffff168373ffffffffffffffffffffffffffffffffffffffff167f17307eab39ab6107e8899845ad3d59bd9653f200f220920489ca2b5937696c31836040516115f09190611d53565b60405180910390a3505050565b61160884848461113d565b61161484848484611af5565b611653576040517f08c379a000000000000000000000000000000000000000000000000000000000815260040161164a90612bd5565b60405180910390fd5b50505050565b600080600090507a184f03e93ff9f4daa797ed6e38ed64bf6a1f01000000000000000083106116b7577a184f03e93ff9f4daa797ed6e38ed64bf6a1f01000000000000000083816116ad576116ac612a10565b5b0492506040810190505b6d04ee2d6d415b85acef810000000083106116f4576d04ee2d6d415b85acef810000000083816116ea576116e9612a10565b5b0492506020810190505b662386f26fc10000831061172357662386f26fc10000838161171957611718612a10565b5b0492506010810190505b6305f5e100831061174c576305f5e100838161174257611741612a10565b5b0492506008810190505b612710831061177157612710838161176757611766612a10565b5b0492506004810190505b60648310611794576064838161178a57611789612a10565b5b0492506002810190505b600a83106117a3576001810190505b80915050919050565b60018111156118cc57600073ffffffffffffffffffffffffffffffffffffffff168473ffffffffffffffffffffffffffffffffffffffff16146118405780600360008673ffffffffffffffffffffffffffffffffffffffff1673ffffffffffffffffffffffffffffffffffffffff16815260200190815260200160002060008282546118389190612c90565b925050819055505b600073ffffffffffffffffffffffffffffffffffffffff168373ffffffffffffffffffffffffffffffffffffffff16146118cb5780600360008573ffffffffffffffffffffffffffffffffffffffff1673ffffffffffffffffffffffffffffffffffffffff16815260200190815260200160002060008282546118c39190612cc4565b925050819055505b5b50505050565b50505050565b600073ffffffffffffffffffffffffffffffffffffffff168273ffffffffffffffffffffffffffffffffffffffff1603611947576040517f08c379a000000000000000000000000000000000000000000000000000000000815260040161193e90612d44565b60405180910390fd5b61195081610fa6565b15611990576040517f08c379a000000000000000000000000000000000000000000000000000000000815260040161198790612db0565b60405180910390fd5b61199e6000838360016117ac565b6119a781610fa6565b156119e7576040517f08c379a00000000000000000000000000000000000000000000000000000000081526004016119de90612db0565b60405180910390fd5b6001600360008473ffffffffffffffffffffffffffffffffffffffff1673ffffffffffffffffffffffffffffffffffffffff16815260200190815260200160002060008282540192505081905550816002600083815260200190815260200160002060006101000a81548173ffffffffffffffffffffffffffffffffffffffff021916908373ffffffffffffffffffffffffffffffffffffffff160217905550808273ffffffffffffffffffffffffffffffffffffffff16600073ffffffffffffffffffffffffffffffffffffffff167fddf252ad1be2c89b69c2b068fc378daa952ba7f163c4a11628f55a4df523b3ef60405160405180910390a4611af16000838360016118d2565b5050565b6000611b168473ffffffffffffffffffffffffffffffffffffffff16611c7c565b15611c6f578373ffffffffffffffffffffffffffffffffffffffff1663150b7a02611b3f610fe7565b8786866040518563ffffffff1660e01b8152600401611b619493929190612e25565b6020604051808303816000875af1925050508015611b9d57506040513d601f19601f82011682018060405250810190611b9a9190612e86565b60015b611c1f573d8060008114611bcd576040519150601f19603f3d011682016040523d82523d6000602084013e611bd2565b606091505b506000815103611c17576040517f08c379a0000000000000000000000000000000000000000000000000000000008152600401611c0e90612bd5565b60405180910390fd5b805181602001fd5b63150b7a0260e01b7bffffffffffffffffffffffffffffffffffffffffffffffffffffffff1916817bffffffffffffffffffffffffffffffffffffffffffffffffffffffff191614915050611c74565b600190505b949350505050565b6000808273ffffffffffffffffffffffffffffffffffffffff163b119050919050565b6000604051905090565b600080fd5b600080fd5b60007fffffffff0000000000000000000000000000000000000000000000000000000082169050919050565b611ce881611cb3565b8114611cf357600080fd5b50565b600081359050611d0581611cdf565b92915050565b600060208284031215611d2157611d20611ca9565b5b6000611d2f84828501611cf6565b91505092915050565b60008115159050919050565b611d4d81611d38565b82525050565b6000602082019050611d686000830184611d44565b92915050565b600081519050919050565b600082825260208201905092915050565b60005b83811015611da8578082015181840152602081019050611d8d565b60008484015250505050565b6000601f19601f8301169050919050565b6000611dd082611d6e565b611dda8185611d79565b9350611dea818560208601611d8a565b611df381611db4565b840191505092915050565b60006020820190508181036000830152611e188184611dc5565b905092915050565b6000819050919050565b611e3381611e20565b8114611e3e57600080fd5b50565b600081359050611e5081611e2a565b92915050565b600060208284031215611e6c57611e6b611ca9565b5b6000611e7a84828501611e41565b91505092915050565b600073ffffffffffffffffffffffffffffffffffffffff82169050919050565b6000611eae82611e83565b9050919050565b611ebe81611ea3565b82525050565b6000602082019050611ed96000830184611eb5565b92915050565b611ee881611ea3565b8114611ef357600080fd5b50565b600081359050611f0581611edf565b92915050565b60008060408385031215611f2257611f21611ca9565b5b6000611f3085828601611ef6565b9250506020611f4185828601611e41565b9150509250929050565b600080600060608486031215611f6457611f63611ca9565b5b6000611f7286828701611ef6565b9350506020611f8386828701611ef6565b9250506040611f9486828701611e41565b9150509250925092565b600080fd5b600080fd5b7f4e487b7100000000000000000000000000000000000000000000000000000000600052604160045260246000fd5b611fe082611db4565b810181811067ffffffffffffffff82111715611fff57611ffe611fa8565b5b80604052505050565b6000612012611c9f565b905061201e8282611fd7565b919050565b600067ffffffffffffffff82111561203e5761203d611fa8565b5b61204782611db4565b9050602081019050919050565b82818337600083830152505050565b600061207661207184612023565b612008565b90508281526020810184848401111561209257612091611fa3565b5b61209d848285612054565b509392505050565b600082601f8301126120ba576120b9611f9e565b5b81356120ca848260208601612063565b91505092915050565b6000602082840312156120e9576120e8611ca9565b5b600082013567ffffffffffffffff81111561210757612106611cae565b5b612113848285016120a5565b91505092915050565b6000819050919050565b600061214161213c61213784611e83565b61211c565b611e83565b9050919050565b600061215382612126565b9050919050565b600061216582612148565b9050919050565b6121758161215a565b82525050565b6000602082019050612190600083018461216c565b92915050565b6000602082840312156121ac576121ab611ca9565b5b60006121ba84828501611ef6565b91505092915050565b6121cc81611e20565b82525050565b60006020820190506121e760008301846121c3565b92915050565b6121f681611d38565b811461220157600080fd5b50565b600081359050612213816121ed565b92915050565b600080604083850312156122305761222f611ca9565b5b600061223e85828601611ef6565b925050602061224f85828601612204565b9150509250929050565b600067ffffffffffffffff82111561227457612273611fa8565b5b61227d82611db4565b9050602081019050919050565b600061229d61229884612259565b612008565b9050828152602081018484840111156122b9576122b8611fa3565b5b6122c4848285612054565b509392505050565b600082601f8301126122e1576122e0611f9e565b5b81356122f184826020860161228a565b91505092915050565b6000806000806080858703121561231457612313611ca9565b5b600061232287828801611ef6565b945050602061233387828801611ef6565b935050604061234487828801611e41565b925050606085013567ffffffffffffffff81111561236557612364611cae565b5b612371878288016122cc565b91505092959194509250565b6000806040838503121561239457612393611ca9565b5b60006123a285828601611ef6565b92505060206123b385828601611ef6565b9150509250929050565b7f4e487b7100000000000000000000000000000000000000000000000000000000600052602260045260246000fd5b6000600282049050600182168061240457607f821691505b602082108103612417576124166123bd565b5b50919050565b60008190508160005260206000209050919050565b60006020601f8301049050919050565b600082821b905092915050565b60006008830261247f7fffffffffffffffffffffffffffffffffffffffffffffffffffffffffffffffff82612442565b6124898683612442565b95508019841693508086168417925050509392505050565b60006124bc6124b76124b284611e20565b61211c565b611e20565b9050919050565b6000819050919050565b6124d6836124a1565b6124ea6124e2826124c3565b84845461244f565b825550505050565b600090565b6124ff6124f2565b61250a8184846124cd565b505050565b5b8181101561252e576125236000826124f7565b600181019050612510565b5050565b601f821115612573576125448161241d565b61254d84612432565b8101602085101561255c578190505b61257061256885612432565b83018261250f565b50505b505050565b600082821c905092915050565b600061259660001984600802612578565b1980831691505092915050565b60006125af8383612585565b9150826002028217905092915050565b6125c882611d6e565b67ffffffffffffffff8111156125e1576125e0611fa8565b5b6125eb82546123ec565b6125f6828285612532565b600060209050601f8311600181146126295760008415612617578287015190505b61262185826125a3565b865550612689565b601f1984166126378661241d565b60005b8281101561265f5784890151825560018201915060208501945060208101905061263a565b8683101561267c5784890151612678601f891682612585565b8355505b6001600288020188555050505b505050505050565b7f4552433732313a20696e76616c696420746f6b656e2049440000000000000000600082015250565b60006126c7601883611d79565b91506126d282612691565b602082019050919050565b600060208201905081810360008301526126f6816126ba565b9050919050565b7f4552433732313a2061646472657373207a65726f206973206e6f74206120766160008201527f6c6964206f776e65720000000000000000000000000000000000000000000000602082015250565b6000612759602983611d79565b9150612764826126fd565b604082019050919050565b600060208201905081810360008301526127888161274c565b9050919050565b600081905092915050565b60006127a582611d6e565b6127af818561278f565b93506127bf818560208601611d8a565b80840191505092915050565b60006127d7828561279a565b91506127e3828461279a565b91508190509392505050565b60006040820190506128046000830185611eb5565b6128116020830184611eb5565b9392505050565b600081519050612827816121ed565b92915050565b60006020828403121561284357612842611ca9565b5b600061285184828501612818565b91505092915050565b7f4552433732313a20617070726f76616c20746f2063757272656e74206f776e6560008201527f7200000000000000000000000000000000000000000000000000000000000000602082015250565b60006128b6602183611d79565b91506128c18261285a565b604082019050919050565b600060208201905081810360008301526128e5816128a9565b9050919050565b7f4552433732313a20617070726f76652063616c6c6572206973206e6f7420746f60008201527f6b656e206f776e6572206f7220617070726f76656420666f7220616c6c000000602082015250565b6000612948603d83611d79565b9150612953826128ec565b604082019050919050565b600060208201905081810360008301526129778161293b565b9050919050565b7f4552433732313a2063616c6c6572206973206e6f7420746f6b656e206f776e6560008201527f72206f7220617070726f76656400000000000000000000000000000000000000602082015250565b60006129da602d83611d79565b91506129e58261297e565b604082019050919050565b60006020820190508181036000830152612a09816129cd565b9050919050565b7f4e487b7100000000000000000000000000000000000000000000000000000000600052601260045260246000fd5b7f4552433732313a207472616e736665722066726f6d20696e636f72726563742060008201527f6f776e6572000000000000000000000000000000000000000000000000000000602082015250565b6000612a9b602583611d79565b9150612aa682612a3f565b604082019050919050565b60006020820190508181036000830152612aca81612a8e565b9050919050565b7f4552433732313a207472616e7366657220746f20746865207a65726f2061646460008201527f7265737300000000000000000000000000000000000000000000000000000000602082015250565b6000612b2d602483611d79565b9150612b3882612ad1565b604082019050919050565b60006020820190508181036000830152612b5c81612b20565b9050919050565b7f4552433732313a207472616e7366657220746f206e6f6e20455243373231526560008201527f63656976657220696d706c656d656e7465720000000000000000000000000000602082015250565b6000612bbf603283611d79565b9150612bca82612b63565b604082019050919050565b60006020820190508181036000830152612bee81612bb2565b9050919050565b7f4552433732313a20617070726f766520746f2063616c6c657200000000000000600082015250565b6000612c2b601983611d79565b9150612c3682612bf5565b602082019050919050565b60006020820190508181036000830152612c5a81612c1e565b9050919050565b7f4e487b7100000000000000000000000000000000000000000000000000000000600052601160045260246000fd5b6000612c9b82611e20565b9150612ca683611e20565b9250828203905081811115612cbe57612cbd612c61565b5b92915050565b6000612ccf82611e20565b9150612cda83611e20565b9250828201905080821115612cf257612cf1612c61565b5b92915050565b7f4552433732313a206d696e7420746f20746865207a65726f2061646472657373600082015250565b6000612d2e602083611d79565b9150612d3982612cf8565b602082019050919050565b60006020820190508181036000830152612d5d81612d21565b9050919050565b7f4552433732313a20746f6b656e20616c7265616479206d696e74656400000000600082015250565b6000612d9a601c83611d79565b9150612da582612d64565b602082019050919050565b60006020820190508181036000830152612dc981612d8d565b9050919050565b600081519050919050565b600082825260208201905092915050565b6000612df782612dd0565b612e018185612ddb565b9350612e11818560208601611d8a565b612e1a81611db4565b840191505092915050565b6000608082019050612e3a6000830187611eb5565b612e476020830186611eb5565b612e5460408301856121c3565b8181036060830152612e668184612dec565b905095945050505050565b600081519050612e8081611cdf565b92915050565b600060208284031215612e9c57612e9b611ca9565b5b6000612eaa84828501612e71565b9150509291505056fea26469706673582212204a564a026cd99494f5efcefff147b1c72719115f722feaf944d0ffe7803cf04c64736f6c63430008110033",
  "linkReferences": {},
  "deployedLinkReferences": {}
}